:020000040800F2
:100000001808002021270008D5240008D72400085C
:10001000D9240008DB240008DD24000800000000CB
:10002000000000000000000000000000DF240008C5
:10003000E124000800000000E3240008E524000893
:10004000492700084D2700085127000855270008B8
:10005000592700085D2700081725000861270008B8
:1000600065270008692700086D2700087127000828
:1000700075270008792700087D27000881270008D8
:1000800085270008892700088D2700089127000888
:1000900095270008992700089D270008A127000838
:1000A000A5270008A9270008AD270008B1270008E8
:1000B000F1240008B5270008B9270008BD2700086B
:1000C000C1270008C5270008C9270008CD27000858
:1000D000D1270008D5270008D9270008DD27000808
:1000E000E1270008E5270008E927000800000000D4
:1000F0000000000000000000000000000000000000
:100100000000000000000000ED270008F1270008B3
:10011000F5270008F9270008FD2700080128000836
:1001200005280008092800080D28000811280008E3
:1001300015280008192800081D2800082128000893
:1001400025280008292800082D2800083128000843
:100150002DE9F0439FB000BF66A6269CDFF8E48A35
:1001600002918DF83B4000210B914FF0FF37044680
:1001700091461D460AE019F8011B0298A047002885
:10018000029000F0A4800B98401C0B9099F800009E
:1001900050B12528EFD1002000210590069107904D
:1001A000089109900A9103E00B98A7E041F0010142
:1001B00019F8010F2028F9D023280CD02B2804D0BF
:1001C0002D2805D0302809D083E041F00201EFE767
:1001D00041F00401ECE741F00801E9E741F01001CA
:1001E000E6E700200D900AE00D98404505DA00EBA7
:1001F000800302EB4302303A0D9209F1010999F8AC
:100200000020A2F130000A28EED399F800002E2831
:1002100018BF0C9726D119F8010F2A2808D1286891
:10022000286009F1010950F8042B28600C9219E0AC
:100230002D280CBF19F8010B002000220C920BE0B6
:1002400040B90C9A424505DA02EB820203EB420305
:10025000303B0C9309F1010999F80030A3F1300209
:100260000A2AEDD3ADF83810304699F8001000F0A6
:1002700081FE08B119F8010B8DF83A009DF83A009B
:10028000682804BF99F80010682903D162208DF80E
:100290003A0008E06C2804BF99F800006C2804D1EB
:1002A00071218DF83A1009F1010910A804902A462D
:1002B00019F8013B6946204600F060F838B910AAE9
:1002C0006946204600F08CF900287FF55FAF38467C
:1002D00014E02A2885D12A682A6052F8040B2A6083
:1002E00000280D9003D540420D9041F0040109F122
:1002F00001098AE7686A6C747A4C00001FB0BDE897
:10030000F083622820D0682811D06A2803D06C2896
:1003100027D0712825D10868C01D20F0070008608B
:10032000D0E9002308300860194610467047002ABB
:100330000A680A60106803D0121D0A6000B217E054
:10034000121D0A6080B217E0002A0A680A6010686D
:1003500003D0121D0A6040B20AE0121D0A60C0B24A
:100360000AE0002A0A680A60106803D0121D0A60B9
:10037000C1177047121D0A600021704770B51C46F6
:100380000D46B4F125002E69114600F017811C3886
:100390006AD0001F022867D9133843D0093863D0C8
:1003A000801E16D0401E1ED0401E02285CD9001FA1
:1003B00019D0401F00F08380401E33D0401E00F053
:1003C000CD80C01E00F0D880801E2BD0C01E29D04A
:1003D000FAE06869421C6A610A680A6052F8043BE4
:1003E0000A603354FAE095F83A000122FFF789FFDA
:1003F000C5E900010023994204DA6869411C69617A
:100400002D210DE0288F810704D56869411C6961A1
:100410002B2105E0C00722D56869411C69612021B4
:1004200031541CE095F83A000022FFF76AFFC5E955
:10043000000195F83800010711D5D5E90023002007
:10044000834208BF82420AD044F02000782806D1B7
:10045000686930213154401C411C69613454214683
:1004600068693044E86083E00868C01D20F0070038
:100470000860D0E9002308300860C5E90023D5E909
:100480000001C80F04D06869411C69612D210DE08D
:10049000288F810704D56869411C69612B2105E01B
:1004A000C00704D56869411C69612021315468691D
:1004B0003044E8602146284600F0C4F98EE005F19A
:1004C0003A02507820B14FF0FF340FF648205EE03A
:1004D0001078622808D0682824D06A2812D06C28A6
:1004E0002ED071280ED02BE00A680A6052F8040B57
:1004F0000A6020B94FF0FF340FF6302047E0E96A78
:1005000001706BE00A680A6052F8040B0A6020B9B7
:100510004FF0FF340FF6142039E0EA6AD317C0E930
:1005200000235BE00A680A6052F8040B0A6020B9F5
:100530004FF0FF340FF6F41029E0E96A01804DE036
:100540000A680A6052F8040B0A6020B94FF0FF34C1
:100550000FF6D8101BE0E96A01603FE00A680A6004
:1005600052F8040B0A600021C5E90001EE60782111
:10057000284600F0BBF831E00868086050F8044BEA
:100580000860EC603CB94FF0FF340FF6B81000F093
:10059000FDFC201A70BD2E6B002E04D5204600F005
:1005A00015FD044608E032460021204600F02AFDF1
:1005B000002814BF041B3446AC610FE06869411C7D
:1005C00069612521315409E06969481C6861252267
:1005D0007254210002D0411C69613454002070BD66
:1005E0002DE9FC410F460646796B7869BC6A091A09
:1005F000386A091AB869091A786A091AF869091A69
:1006000097F838000C1B410790460FD42021002C8E
:100610008DF800100ADD254601236A46394630462A
:1006200000F060FC00285DD16D1EF5D17B6942466B
:100630003946304600F056FC002853D130208DF862
:1006400000003D6A002D09DD01236A463946304627
:1006500000F048FC002845D16D1EF5D1BB69FA6851
:100660003946304600F03EFC00283BD130208DF862
:1006700000007D6A002D08DD01236A4639463046B8
:1006800000F030FC70BB6D1EF6D1F868B969FB69EB
:1006900042183946304600F025FC18BB30208DF852
:1006A0000000BD6A002D08DD01236A463946304648
:1006B00000F018FCB0B96D1EF6D197F8380041076C
:1006C0000DD52021002C8DF8001008DD01236A468D
:1006D0003946304600F006FC20B9641EF6D10020F1
:1006E000BDE8F6814FF0FF30BDE8F6812DE9FC470B
:1006F00007468A463E69BAF16F0F08BF082405D045
:100700004AF02001782914BF0A2410243C25D7E997
:100710000023BAF1640F18BFBAF1690F90469946E9
:1007200006D100218B4203DAD8F1000869EB4909B0
:100730000020814508BF80451FD1386BE8B9082CDF
:100740004CD197F83800010748D530203B2586F872
:100750003B0043E000280ED597F8380000F0140065
:10076000102808D17A6B7869121A386A121A511A4D
:100770000029C8BF3962BDE8F3878DF800A0404664
:1007800049462246E31700F069FC3032D0B26D1EB4
:100790003A28019504DB9DF80000A0F151018A1868
:1007A0007255404649462246E31700F057FC804602
:1007B00089460020814508BF804503D0F86871193B
:1007C0008842DCD3082C09D197F83800010705D5F9
:1007D000715D302902D06D1E30207055C5F13C018D
:1007E000B9617019F860386B8142B3DA411A396225
:1007F0004FF6EF70398F01403987BDE8F3872DE957
:10080000D04306460F4614464FF00008DFF83894F0
:1008100012E0E00707D542464B463046394600F025
:1008200035FD06460F464046494642464B4600F0D7
:100830002DFD641080468946002CEAD130463946A9
:10084000BDE8D0832DE9F34F054641F020048DB07B
:10085000D5E90089612C02AE09D0286B002848BF79
:10086000062003D408BF672C01D101202863D5E9F5
:10087000002358004015401C0ED119030CD0032052
:10088000A8619DF8380061381A2802D20FF2D061B1
:1008900011E00FF2D0610EE058004015401C0FD15E
:1008A00019030DD10320A8619DF8380061381A287A
:1008B00014D30FF2B861E868032200F0B9FDD3E168
:1008C000194621F00043B3F5801F10460DD20027D2
:1008D000BB4208BFBA42019703D111E00FF2886111
:1008E000E9E701AA00F0F8FD0AE0DFF8607307EB22
:1008F0001352DFF85C3301921940DFF85833194383
:10090000C5E90001612C0ED1E86830210170811C1D
:10091000E9609DF8381061290CBF78215821417099
:100920006869801C6861D5E900AB2BF000430020AA
:100930002AF00002834204BF8242002300F05A8161
:10094000612C40F0A980286B00284CBF2120401C5E
:1009500000904046009F7F1C49460022002300F083
:10096000F3FDD94601988DF8082038BF89F0004979
:10097000001F0190002FD0460DF1090040F349817E
:1009800040F2FF71DFF8D0B20C910646404649466E
:100990000022002300F0F0FD80F03A814800400D75
:1009A00000F11C0210D0002A0EDD0C98824205DBFB
:1009B00009F0004040EA0B01002013E0A448084081
:1009C00040EA025140460DE029F00043002028F0A3
:1009D0000002834208BF82420FBF40461C224046AD
:1009E00000F0E2FD8046894600F07CFEFF1F002FEC
:1009F000044609DD00F094FE02460B464046494697
:100A000000F0A0FE80468946F01D072104E004F0B6
:100A10000F0200F8012D2411002C01DD491EF6D52E
:100A2000491E5CBF002200F8012DF9D5ECE0002042
:100A3000194602AA0A4400E05B1E12F80149491E49
:100A40008442F9D00F2804D10DF10900425C521CF8
:100A50004254002904D50198001D02AE5B1C019090
:100A6000591E12D49DF838007218147804F1300819
:100A70005FFA88F4392CC4BFA0F13A04A044491E9F
:100A800002F80189F1D58DF83800286B002840F173
:100A9000B080591E2963ACE040464946002200233D
:100AA00000F052FD019938BF89F0004947F2975094
:100AB00041436A4A91FBF2F20192D2F1070204DD4E
:100AC00040464946FFF79BFE0AE052420020644937
:100AD000FFF795FE02460B464046494600F0A4FE4D
:100AE0008046662C286BDFF87CB106BF019F0A3771
:100AF00006273F18142FC8BF142730208DF8080090
:100B000089460DF1090000E03046002F34DD06462D
:100B10004046494600F0ACFF01460A4606F108038C
:100B200004200A26B2FBF6F606EB860EA2EB4E0276
:100B3000303203F8012C0A22B6FBF2F202EB820EED
:100B4000A6EB4E063036401E03F8026DE9D1083F91
:100B5000002F03F10806D7DD084600F09DFF02468E
:100B60000B464046494600F0EDFD00225B4600F092
:100B70008DFB80468946CBE70DF10901401A0DF146
:100B8000090604E00199491E401E0191761C317846
:100B90003029F7D0662C02D10199491C03E0652C5D
:100BA0000CBF012100212B6BCB189842B8BF431E0C
:100BB000002B1ED4834204DAF05C3528A8BF39200C
:100BC00000DA30201946721E02EB010800E05B1EBD
:100BD00018F80199491E8145F9D0392802D1705C75
:100BE000401C7054002904D50198401C16465B1C1B
:100BF0000190019800B200901BB29DF83810324667
:100C0000284600F035F82FE0C61D002F3FF7BEAE96
:100C100030460DF10901401A009903468842C8BFC9
:100C20000B46002B0DF109063FF52FAF8342BFF6AF
:100C3000FEAE0DF10900C05C07287FF7F8AE0F206B
:100C4000F6E60000CBCCCC0C0000244002FCFFFFF9
:100C5000FFFF0F800000E03F0000F07FA086010052
:100C60000000F03F84D797410FB0BDE8F08F00003F
:100C70002DE9FC43054683B01F46D5F83080002F90
:100C8000164602DC5FF00107B9A68946BDF930407F
:100C900049F02000662808BF641C17D0672840F080
:100CA000888014F1040FC0F28A80444580F2878066
:100CB00095F83800641C010702D44745B8BFB84610
:100CC00020B2B8EB000848BF4FF000080FFA84F9D3
:100CD000E868A969B9F1000F27DC4A1C30234354A6
:100CE000B8F1000F03DC95F83800010703D5E86878
:100CF0002E218154521C18EB090FB8BFC8F1000413
:100D000024B260426862A044B845AA61B8BF4746B1
:100D1000E868AB693FB2EF613A463146184400F0EB
:100D200087FBA8EB0700A862C5E022B297420844FF
:100D300019DA3A46314600F07BFBA8693818A9EB6E
:100D40000707B8F1000FA8616F6203DC95F838104F
:100D50000A0705D5E9682E220A54E869401CE861B3
:100D6000C5F82880A7E0314600F062FBA8693F1B68
:100D7000B8F1000F484403DC95F838100A0703D592
:100D8000E9682E220A54401CA86138B28045E86800
:100D9000AB69B8BF47463AB206EB0901184400F008
:100DA00047FBA8693FB23818A8EB0707A8616F6234
:100DB00081E0B9F1610F16D14FF0700918E0474595
:100DC00004DA95F838100A0758BFB846B8F1010898
:100DD00048BF4FF00008B9F1670F14BF4FF0450945
:100DE0004FF0650904E0B9F1410F08BF4FF0500919
:100DF000A969EB68481CA861B8F1000F16F8012B2F
:100E00005A5403DC95F838100A0719D5EA68431CD0
:100E1000AB612E211154B8F1000F11DD7F1E38B2E5
:100E20008045E868B8BF47463AB23146184400F0FA
:100E3000FFFAA8693FB23818A861A8EB07006862FA
:100E4000E868A9690844002C80F8009003D42B219D
:100E50004170811C03E02D2141706442811C0020FF
:100E60006A460AE023460A2493FBF4F404EB840662
:100E7000A3EB460302F8013B401C24B2002CF1DC3A
:100E8000012806DC49F02002652A04BF302201F85F
:100E9000012B48B9302001F8010B07E0401E1DF876
:100EA0000020303201F8012B0028F7DCE868AA693D
:100EB0001044091AE96195F8380000F01400102870
:100EC0000DD16969A8694118686A4118E869411833
:100ED000A86A4118686B8142BCBF411A296205B0FB
:100EE000BDE8F083F8B505460E4617461C460020BF
:100EF00074B117F8011BB068A847B06030B1F06A50
:100F0000401CF0620020641EF3D1F2BD4FF0FF30B0
:100F1000F2BD00007072696E74665F733A20256ED0
:100F200020646973616C6C6F776564007072696EC0
:100F300074663A2062616420256E20617267756D67
:100F4000656E74007072696E74665F733A206261D8
:100F50006420257320617267756D656E74000000F2
:100F60006E616E004E414E00696E6600494E46004D
:100F7000300000000278C9B28A421AB11CBF10F8D2
:100F8000012FF9E718BF00207047000080B500B9B5
:100F900006A005490B681BB122220021984701E0F9
:100FA00000F087FD222002BD10000020636F6E73E9
:100FB000747261696E742068616E646C65723A2047
:100FC000626164206D6573736167650000F1010300
:100FD000810704D010F8011B89B18107FAD102689A
:100FE000B2F10131914311F0803F04BF50F8042F5A
:100FF000F6E710F8011B11B110F8011BFBE7C01A4E
:1010000070470000C9B2830706D0521E22D310F8E1
:10101000013B9942F7D11FE0083A13D302F10402D1
:1010200041EA012141EA014150F8043B121F21BF6E
:101030004B40A3F1013C2CEA030C1CF0803FF3D0A1
:10104000C9B2001F083210F8013B521E28BF91EAB6
:10105000030FF8D818BF0120401E7047B3BBD9B1A9
:10106000B2F5803F7DD2022A1ED98C46B1FBF2F147
:1010700002FB11C31B0443EA1043B3FBF2FC02FB67
:101080001C3380B240EA0343B3FBF2F002FB1032A0
:1010900040EA0C4000237047022A05D98446B0FB81
:1010A000F2F002FB10C270474AB105D100F0010214
:1010B00049085FEA3000704700220023704700F0C3
:1010C000FBBC0B000200002100207047904271EB36
:1010D000030CF6D3B3F5803F2FD2F0B5B3FA83F704
:1010E000B1FA81F4A7F10F0E3D1B5340CEF120065B
:1010F00002FA0EF2F3415340B5F10F0746D80F3C08
:101100002C444140C4F12006A040F1414140B1FBD4
:10111000F3F603FB1611A2FB0645001BA94102D200
:10112000761E8018594180EA010221FA0EF362FA14
:101130000EF200215A403046F0BD30B4B1FBF3FC52
:1011400003FB1C11A2FB0C45001BA94103D2ACF10F
:10115000010C8018594130BC02460B466046002104
:101160007047B2F1807F65D3F0B5B2FA82F7B1FA79
:1011700081F4C7F10F063D1B22FA06F307F1110EA9
:10118000F24120355A40B5F10F07B8D94140C4F1BA
:101190002006A040F1414140B1FBF3FC03FB1C11D0
:1011A000A2FB0C45001BA94103D2BCF1010C801825
:1011B00059410F2F12D30F3FC90341EA5041B1FBF0
:1011C000F3F603FB1611A2FB0645D4EBC030A94190
:1011D00002D2761E8018594146EACC3C07B3414002
:1011E000C7F12006B840F1414140B1FBF3F603FBE3
:1011F0001611A2FB0645001BA94102D2761E8018DB
:10120000594180EA010221FA0EF3C7F1200462FA83
:101210000EF20CFA07F05A402CFA04F13043F0BDFC
:1012200080EA010221FA0EF3002162FA0EF2604612
:101230005A40F0BD8C46B1FBF2F102FB11C31B0218
:1012400043EA1063B3FBF2FC02FB1C331B024CEAC3
:10125000002043EA1063B3FBF2FC02FB1C331B02C9
:101260004CEA002043EA1063B3FBF2FC02FB1C33A0
:101270001B024CEA002043EA1063B3FBF2FC02FBC2
:101280001C324CEA0020002370470000B0B581EA10
:10129000030C0CF0004C40F2FF7515EA11541DBF11
:1012A00015EA1357AC42AF4239E0E41923EA45533B
:1012B00043F48013C90241F0004141EA505EC70285
:1012C0001100A7FB020200284FF00000EEFB0120F6
:1012D0004FF00001E3FB072118BF42F00102401864
:1012E00000214941E3FB0E01A4F580640F0302D203
:1012F00052004041494154F101046CDD470872F14C
:10130000004250F1000051EB0451A1F580115CBF87
:1013100041EA0C01B0BD4CEA05510020B0BD05EA20
:101320001357AC4214BFAF4241E050EA410E1CBF1C
:1013300052EA430E02E061460020B0BD24423C4424
:101340001BD15FEA070EF6D0090302BF0146002059
:10135000AEF1140EB1FA81F7AEEB070401FA07FE05
:101360000C37C7F1200100FA07F7C8404EEA000E1B
:1013700023EA455343F48013A2E733F00043B3FA62
:1013800083F704BFB2FA82FE77440B3FE41BB7F148
:10139000200E2FBF02FA0EF3BB40C7F1200E22FA37
:1013A0000EFE38BF43EA0E03BA40641C82E750EADF
:1013B000410E14BF52EA430E6FF000014FF40017C4
:1013C00017EB430F8ABF194617EB410FB5E74CEAFD
:1013D00005510020B0BDD4F10104B4F120070FDAAB
:1013E000C4F12007520828BF42F0010210FA07F5A5
:1013F00001FA07F7E1BF2A43E0403843E1400FE03C
:10140000352C98DCC7F1200452EA400220FA07F29A
:1014100018BF42F0010231FA07F0A1400A4300214F
:1014200072F1004250F1000051EB0C01B0BD000020
:1014300062B38B0708D0521E11F8013B00F8013B44
:1014400000F024808B07F6D1830740F0208000BF96
:10145000103A07D330B4B1E83810103AA0E8381089
:10146000F9D230BC530724BFB1E80810A0E8081037
:1014700044BF51F8043B40F8043BD20724BF31F885
:10148000022B20F8022B44BF0B7803707047121F09
:1014900017D35B0009D151F8043B20F8023B1B0C29
:1014A000121F20F8023BF6D20BE051F8043B00F883
:1014B000013B1B0A20F8023B1B0C121F00F8013BEA
:1014C000F3D238BF121D521E24BF11F8013B00F8A1
:1014D000013BF8D87047000010B5144600F002F840
:1014E000226010BDC1F30A5343B14A0012F5001F38
:1014F00028D2A3F2FE32A1EB0251704750EA410C10
:1015000020D001F0004C31EA0C01B1FA81F204BFA5
:10151000B0FA80F3D2180B3AB2F120032CBF00FAD4
:1015200003F1914041EA0C013EBFC2F1200C20FAC8
:101530000CF319439040524240F2FD33D21A01EBB2
:1015400003517047002270474FF4001C1CEB410F01
:1015500094BF1CEB430F09E041EA030C50EA4C0C2A
:1015600052EA0C0C03D2994208BF9042704714BF54
:101570008B428242704700004FF4001C1CEB410F6D
:1015800094BF1CEB430F09E041EA030C50EA4C0CFA
:1015900052EA0C0C03D28B4208BF8242704714BF40
:1015A0009942904270470000124254D440F2FF7CAE
:1015B0001CEA11530FD0634531D09B1863453CBFE3
:1015C00001EB0251704701F0004141EA0C5100204B
:1015D000AFF30080704750EA410320D001F0004C87
:1015E00091EA0C011CD0B1FA81F30B3B9A420DD960
:1015F000D21A994051EA0C01C3F1200C20FA0CFCDC
:1016000061449840531C40F2FF7CD7E7914041EA87
:101610000C01C2F1200C20FA0CF3194390407047E2
:10162000B0FA80F31533202BE0D3202AEED3203AF2
:10163000203B9A4209D9D21A00FA03F141EA0C017F
:101640000020531C40F2FF7CB8E700FA02F141EAA7
:101650000C0100207047524240F2FF7C1CEA1153FB
:101660000DD06345DBD0B2EB030C3CBFA1EB0251C4
:1016700070470CF1010221EA035141F4801150EA54
:10168000410CCCD001F0004C352A27DC30B481EA83
:101690000C01B2F1200309DAC2F12003044601FA79
:1016A00003F5D0402843D1409C400CE0C3F1200218
:1016B000450020FA03F418BF44F0010421FA03F0B6
:1016C00091400C43002174F1004550F1000051EBB2
:1016D0000C01244230BC7FF47BAF70476146002090
:1016E00076E70000C1F30A5340F2FE329B1A14DD84
:1016F000D3F120034FEAE17208DDC90241EA5051FB
:1017000041F00040D84080185040704703F2E1306B
:1017100010B1D24382F000407047002070470000B3
:10172000C11768B14840401AB0FA80F29040D21C0C
:10173000C907C2F5846241EA025202EBD02140059A
:101740007047000070B44FF0004591EA030F40F17C
:10175000B5816B40841A71EB030603D2001BB141C3
:10176000121973414FF4001C1CEB410F34BF7CEB8A
:10177000430442E00C0DA4EB1356352E4FDC45EA32
:10178000C323DB0A45EAC121C912B6F120050DDDEC
:1017900063FA05F6EB4086EA0305124218BF45F0EE
:1017A0000105C01851F100010CD213E062FA06F5F0
:1017B000F2405540F3415A40B340F3405A4080183C
:1017C000594107D349085FEA30005FEA350528BF71
:1017D00045F0010501F58011420875F1004250F114
:1017E000000041EB04514E0016F5001F70BC38BFDD
:1017F00070470020090D090570471CEB410F10D2FE
:1018000052EA43060BD0BCEB410F05D80C0DAB439D
:10181000661E342EB6DD02E0AB438018594170BC21
:10182000704770BC70470000F0B540F2FF7581EA68
:10183000030C0CF0004C15EA11541DBF15EA1357A8
:10184000AC42AF42E5E0BC41C1F31301C3F3130363
:10185000801A994143F4801304D2641E4000494128
:1018600080185941C90241EA5051B1FBF3F603FB1C
:101870001611A2FB0675D7EBC020A94102D2761E35
:1018800080185941C90241EA5051B1FBF3FE03FBF4
:101890001E11A2FB0E75D7EBC020A94103D2AEF1F9
:1018A000010E80185941890241EA9051760546EAB5
:1018B0008E2EB1FBF3F603FB1611A2FB0675D7EBD8
:1018C0008020A94102D2761E80185941C90241EAFE
:1018D00050514EEA060EB1FBF3F603FB1611A2FBC4
:1018E0000675D7EBC020A94102D2761E8018594157
:1018F000C90241EA5051B1FBF3F703FB1711A2FBF8
:101900000735D3EBC020A94167F100070CBF0042A7
:1019100047F0010766F3D5274FEA1E31B80814F5E2
:10192000806412DDBD0775F1004250EB0E5051EBA3
:10193000045111F5801F5CBF41EA0C01F0BD4CF071
:101940007F6141F0E0410020F0BDBD076D0840EA35
:101950000E5041F48011D4F10104B4F120060ADAEA
:10196000C4F120060200E04001FA06F3E14018430A
:10197000B24015430EE0342C13DCC6F1200445EAD6
:1019800040056D0820FA06F2154321FA06F0A14041
:101990000D43002175F1004250F1000051EB0C01A4
:1019A000F0BD00205FEA0C01F0BDCFB992185B4199
:1019B000B3FA83F704BFB2FA82F6BF190B3FB7F14F
:1019C00020062FBF02FA06F3BB40C7F1200622FA19
:1019D00006F638BF3343BA401CB1E419641E33E73E
:1019E0007F4231F00041B1FA81F404BFB0FA80F6D1
:1019F000A4190B3CB4F120062FBF00FA06F1A14058
:101A0000C4F1200620FA06F638BF3143A0403C1B43
:101A10001AE7AC421ABF05EA1357AF4212E050EA88
:101A200041061CBF52EA4306BFE750EA4107304671
:101A300061461CBF41EA0551F0BD52EA430C08BFA4
:101A4000C143F0BD00204FF4001616EB410F98BFC4
:101A500016EB430F08BF16EB410F24BFC14305E04F
:101A600016EB430F0CBF61464CEA0551F0BD000078
:101A7000400D491840EA81200CD2490DA1F5806142
:101A8000491C40F0004005DBD1F11F0154BFC840A4
:101A9000C017704700207047014648B1B0FA80F186
:101AA0008840C91CC1F58461090501EBD0214005BE
:101AB0007047012000F0B6B870470000841A71EB3F
:101AC000030604D26E40001BB141121973414FF45A
:101AD000001C1CEB410F34BF7CEB430682E00C0D75
:101AE000A4EB1356362E7BDC012E45EAC32341DCE2
:101AF00043EA525312BFD20292025B08240545EA20
:101B0000C12141EA5051D2EBC020994125D407D1DF
:101B1000B0FA80F610FA06F162D00020203608E014
:101B2000B1FA81F6B140C6F1200220FA02F2114367
:101B3000B0404FEAF474B4EB465434F001064FEA77
:101B400074040AD8D6F50016760D04F00044F0406F
:101B500061FA06F25040F1404840C00A40EA415064
:101B600021F0004128BF5FEA500550F1000044EB2E
:101B7000D12135E0DB0A45EAC121C90AB6F12005C9
:101B80000EDD42EA0242120CC5F1200603FA06F607
:101B9000EB4042EA06056D42984161F100010DE01B
:101BA00062FA06F5F240554063FA06FC82EA0C023E
:101BB000F3405A406D42904161EB030111F4801FE4
:101BC00005D1641E620502D06D004041494121F4F7
:101BD0008011430875F1004350F1000041EB0451BE
:101BE00070BC70471CEB410F15D223F0004352EA42
:101BF00043060BD04FEA4C0CBCEB410F04D80C0D44
:101C0000661E342EB7DDEBE7801A994150EA410693
:101C100008BF0021E4E708BF1CEB430F28BF6FF0AB
:101C20000001DDE780B500F007F8024A1100182036
:101C3000ABBEFBE72600020010B500F052F8020030
:101C40000023DB4300241068984203D011000220D7
:101C5000ABBE14605068984203D0111D0220ABBE89
:101C6000546010BDF0B583B0040000F03AF8A10054
:101C700047183D680026F643B54216D100F01AF821
:101C80003D68B5420FD100BF09A00090002C01D1E2
:101C9000002000E00420019003200290694601200A
:101CA000ABBE05003D6000F014F8280003B0F0BDA5
:101CB0003A7474000C480121BFF35F8FD0E84F3FA6
:101CC000C0E8421F002AF9D1BFF35F8F002BF3D188
:101CD00070470548BFF35F8F00210170BFF35F8F2E
:101CE00070470248704700001400002000000020E8
:101CF00080B5DFF8D41288420AD101214FF4006088
:101D000000F0A2F900214FF4006000F09DF9DDE041
:101D1000B0F1804F08D10121012000F0A5F9002188
:101D2000012000F0A1F9D1E0DFF8A012884208D12B
:101D30000121022000F098F90021022000F094F91E
:101D4000C4E0DFF88C12884208D10121042000F0A1
:101D50008BF90021042000F087F9B7E0DFF8741256
:101D6000884208D10121082000F07EF900210820D6
:101D700000F07AF9AAE0DFF86012884208D1012168
:101D8000102000F071F90021102000F06DF99DE0A5
:101D9000DFF84812884208D10121202000F064F9C0
:101DA0000021202000F060F990E0DFF83412884232
:101DB0000AD101214FF4005000F046F900214FF400
:101DC000005000F041F981E0DFF8181288420AD192
:101DD00001215FF4002000F037F900215FF40020BA
:101DE00000F032F972E0DFF8001288420AD10121D6
:101DF0005FF4801000F028F900215FF4801000F0FB
:101E000023F963E0DFF8E41188420AD101215FF48D
:101E1000001000F019F900215FF4001000F014F92F
:101E200054E0DFF8CC11884208D10121402000F0B5
:101E30001BF90021402000F017F947E0DFF8B4114A
:101E4000884208D10121802000F00EF90021802075
:101E500000F00AF93AE0DFF8A01188420AD1012126
:101E60004FF4807000F000F900214FF4807000F012
:101E7000FBF82BE0DFF8841188420AD101215FF4DE
:101E8000803000F0E1F800215FF4803000F0DCF8F1
:101E90001CE0DFF86C1188420AD101215FF40030A8
:101EA00000F0D2F800215FF4003000F0CDF80DE032
:101EB000DFF85011884209D101215FF4802000F041
:101EC000C3F800215FF4802000F0BEF801BD0022BD
:101ED0000388DFF8F420904212D0DFF8042190420A
:101EE0000ED0B0F1804F0BD0DFF8E020904207D049
:101EF000DFF8DC20904203D0DFF8D820904204D1F4
:101F00004FF68F7213404A881343DFF8CC2090427B
:101F100008D0DFF8C820904204D04FF6FF421340AB
:101F2000CA88134303808A8882850A880285DFF87D
:101F3000982090420FD0DFF8A82090420BD0DFF815
:101F4000BC20904207D0DFF8B820904203D0DFF8E1
:101F5000B420904201D1097A018601218182704723
:101F6000C9B2002904D0018851F00101018004E0C8
:101F700002884FF6FE710A4002807047D2B2002AF2
:101F800003D082891143818103E0828932EA010111
:101F90008181704789B2C9430182704700220022C3
:101FA0000022028A0A408089014092B2002A04D0AD
:101FB00089B2002901D0012000E00020C0B27047A2
:101FC00089B2C94301827047002C014000040040DF
:101FD00000080040000C00400010004000140040C9
:101FE00000340140004C01400050014000540140C9
:101FF00000180040001C004000200040004001404C
:102000000044014000480140C9B2002905D01E49E2
:10201000096808431C49086005E01B49096831EA62
:102020000000194908607047C9B2002905D0174956
:10203000096808431549086005E01449096831EA50
:102040000000124908607047C9B2002905D0104944
:10205000096808430E49086005E00D49096831EA3E
:1020600000000B4908607047C9B2002905D0094932
:10207000096808430749086005E00649096831EA2C
:102080000000044908607047181002401C1002400C
:102090000C1002401010024080B54E48006850F00D
:1020A00001004C4908604C4801684C4801404A48CE
:1020B0000160484801684A48014046480160454877
:1020C000006830F48020434908604348006830F4D9
:1020D000FE00414908605FF41F004249086000F0BB
:1020E00005F85FF000604049086001BD80B500F070
:1020F00001F801BD82B00020019000200090354819
:10210000006850F48030334908603248006810F4A9
:10211000003000900198401C01900098002803D1E5
:102120000198B0F5A06FF0D12A480068800302D56D
:102130000120009001E0002000900098012847D184
:102140002A48006850F010002849086027480068B5
:1021500080088000254908602448006850F002008B
:10216000224908601C4800681B4908601A4800683A
:10217000194908601848006850F4806016490860E2
:102180001548006830F47C10134908601248006854
:1021900050F4E810104908600E48006850F0807054
:1021A0000C4908600B4800688001FBD50A480068AC
:1021B00080088000084908600748006850F0020065
:1021C000054908600448006810F00C000828F9D19F
:1021D00002B0704700100240041002400000FFF8F7
:1021E000FFFFF6FE0810024008ED00E0002002406C
:1021F00070B4002200220022002200220022CB78AC
:1022000013F00F03CA78D20601D58A7813430A78EF
:10221000120621D0066800241BE0CA78482A17D18C
:102220000122A240026113E00125A5400A882A404C
:10223000AA420DD1A2000F259540AE4313FA02F237
:1022400032431600CA78282AE7D10122A24042610F
:10225000641C082CE8D306600A88B2F5807F27DB6F
:102260004568002421E0012214F1080612FA06F65E
:102270000A883240B24217D1A2000F269640B543D9
:1022800013FA02F22A431500CA78282A04D101263B
:1022900014F1080296404661CA78482A04D1012602
:1022A00014F1080296400661641C082CDBD34560DB
:1022B00070BC70470022C06889B2084201D001207A
:1022C00000E00020C0B2704789B201617047D2B20D
:1022D000002A02D089B2016101E089B241617047F0
:1022E00080B54FF4E06000F047F81C208DF8000046
:1022F00000208DF8010000208DF8020001208DF8EB
:102300000300684600F03DF8194800F075F801BD7B
:10231000E0B501210120FFF787FE5FF08040FFF765
:10232000E7FC4FF47A70ADF804004720ADF80000E8
:102330000020ADF8020069465FF08040FFF7C7FD5E
:1023400001215FF08040FFF725FE012201215FF0AF
:102350008040FFF713FE01215FF08040FFF700FE91
:1023600000210120FFF760FE024800F045F807BD9C
:1023700018260008DC2600081A4908431A49086094
:102380007047002100210F23C17800291ED0164973
:10239000096811F4E061D1F5E061090AD1F10402A4
:1023A000CB40417811FA02F281780B401A431201B6
:1023B0000E490378CA540121027812F01F0291409D
:1023C0000B4A0078401142F8201009E00121027800
:1023D00012F01F029140074A0078401142F8201085
:1023E000704700000000FA050CED00E000E400E09A
:1023F00000E100E080E100E00EB4C0B5024603A8B1
:1024000000210190009101AB0121044878440C3077
:10241000FDF79EFE06BC5DF810FB00BFDD0200006C
:1024200080B51C480090032310224FF40051102067
:1024300000F038F8FFF754FFFFF76AFF0020164955
:10244000086001210120FFF7EFFD01215FF08040CE
:10245000FFF786FD104801681048FFF7CDFF0E48D2
:1024600000683228F6D300200B4908600A4801684A
:102470000B48FFF7C1FF4FF400510648FFF71AFF62
:102480000200D2F10102D2B24FF400510148FFF72D
:102490001EFFDFE7001001400800002010270008A1
:1024A00030270008F8B50C0015001E00069F01211A
:1024B000FFF7AAFDADF800408DF803508DF80260DB
:1024C00069463800FFF794FE210089B23800FFF713
:1024D000FBFEF1BD7047FEE7FEE7FEE7FEE7704753
:1024E0007047704718480068401C174908607047DB
:1024F00080B501215FF08040FFF750FD002809D032
:1025000001215FF08040FFF75BFD104800680A3052
:102510000E49086001BD80B5012000F01BF80028BD
:1025200010D04FF400510A48FFF7C4FED0F101006B
:102530000200D2B24FF400510548FFF7C8FE012057
:1025400000F018F801BD00000C0000200800002079
:102550000010014000210021084909680140084A93
:102560001268024203D0002901D0012000E00020BF
:10257000C0B2704702490860704700000004014083
:102580001404014030B5016884684218416802EBC8
:102590005103C9070BD54C4409E012F9011B12F88D
:1025A000015B002904F8015B05D5491CF9D19A4269
:1025B000F3D10C3030BD491EF1D5F8E710B507490D
:1025C00079441831064C7C44163404E00A68081D2E
:1025D000114488470146A142F8D110BD2C000000EB
:1025E0003800000018B583B0030014000093019177
:1025F000029469460520ABBE01221900201AAFF3F0
:10260000008004B010BD00007DFFFFFF2802000025
:10261000080000000000002074696D6572204E56AD
:10262000494320636F6E66696720737563636573E2
:10263000732121210A00000080B58DF800000122DD
:102640006946012000F008F8012802D19DF8000039
:1026500002BD4FF0FF3002BD80B5002802D400F06B
:1026600003F802BD002002BD80B5002901D1002081
:1026700002BD012801D0022802D100F004F802BDF9
:10268000FFF7B0FF02BD30B583B00C00150001208C
:10269000FFF7E8FA00900194029569460520ABBE69
:1026A000281A03B030BD000000F00DF8002801D05A
:1026B000FFF784FFAFF300800020AFF30080FFF747
:1026C000AFFE00F002F80120704700F001B80000F2
:1026D00007463846FFF7A6FAFBE7000074696D6508
:1026E0007220636F6E6669672073756363657373C9
:1026F0002121210A0000000038B504460D46284675
:10270000FFF79AFFA84218BF0024204632BD000000
:1027100074696D65206F66662025640A00000000FC
:102720000148804701480047992000083D270008DC
:1027300074696D65206F6E2025640A00AFF3008018
:10274000AFF30080FFF7B0FFFFF7FEBFFFF7FEBF5C
:10275000FFF7FEBFFFF7FEBFFFF7FEBFFFF7FEBFAD
:10276000FFF7FEBFFFF7FEBFFFF7FEBFFFF7FEBF9D
:10277000FFF7FEBFFFF7FEBFFFF7FEBFFFF7FEBF8D
:10278000FFF7FEBFFFF7FEBFFFF7FEBFFFF7FEBF7D
:10279000FFF7FEBFFFF7FEBFFFF7FEBFFFF7FEBF6D
:1027A000FFF7FEBFFFF7FEBFFFF7FEBFFFF7FEBF5D
:1027B000FFF7FEBFFFF7FEBFFFF7FEBFFFF7FEBF4D
:1027C000FFF7FEBFFFF7FEBFFFF7FEBFFFF7FEBF3D
:1027D000FFF7FEBFFFF7FEBFFFF7FEBFFFF7FEBF2D
:1027E000FFF7FEBFFFF7FEBFFFF7FEBFFFF7FEBF1D
:1027F000FFF7FEBFFFF7FEBFFFF7FEBFFFF7FEBF0D
:10280000FFF7FEBFFFF7FEBFFFF7FEBFFFF7FEBFFC
:10281000FFF7FEBFFFF7FEBFFFF7FEBFFFF7FEBFEC
:10282000FFF7FEBFFFF7FEBFFFF7FEBFFFF7FEBFDC
:08283000FFF7FEBFF8FFF30003
:040000050800273D8B
:00000001FF
