:020000040800F2
:10000000B00C0020594B0008494700084B47000836
:100010004D4700084F470008514700080000000006
:10002000000000000000000000000000534700082E
:1000300055470008000000005747000859470008CE
:10004000814B0008854B0008894B00088D4B000848
:10005000914B0008954B000865470008994B000834
:100060009D4B0008A14B0008A54B0008A94B0008B8
:10007000AD4B0008B14B0008D9300008B54B000863
:10008000B94B0008BD4B0008C14B0008C54B000828
:10009000C94B0008CD4B0008D14B0008D54B0008D8
:1000A000D94B0008DD4B0008E14B0008E54B000888
:1000B000E93D000861460008F7300008E94B0008F8
:1000C000ED4B0008F14B0008F54B0008F94B000818
:1000D000FD4B00085D300008014C0008054C00088D
:1000E000094C00080D4C0008114C000800000000ED
:1000F0000000000000000000000000000000000000
:100100000000000000000000154C0008194C000819
:100110001D4C0008214C0008254C0008294C000803
:100120002D4C0008314C0008354C0008394C0008B3
:100130003D4C0008414C0008454C0008494C000863
:100140004D4C0008514C0008554C0008594C000813
:1001500081B000F5E0700268914203D343681A440D
:10016000914202D380680028F5D101B07047DFF8D2
:100170000017086890B94FF4805048604FF48032FF
:100180004FF0FF308A60C86008610420DFF8E42681
:10019000DFF8E4364861C2F8BC010B60012070470B
:1001A00001F1080313F0070F0EBF0023C3F108038A
:1001B00003F007031944D21A8161C26042F00103BF
:1001C0004B60091D28238B50DFF8A4160A69C26111
:1001D00070472DE9FC4B074601F1080010F0070FAE
:1001E0000FBF8946C0F1080000F0070001EB0009CD
:1001F00002F1080111F0070F06D002F10800C0F16A
:10020000080000F0070002441546A5EB090009EBC1
:100210000306A0EB030B43F00303C9F80430AE421E
:1002200028BF00F051FF2879C10758BF00F04CFFEC
:10023000BBF1100F38BF00F047FFB869854207D106
:10024000F8685844F860BE6140F00100706050E109
:10025000786985420AD1B8688344C7F808B07E61DE
:100260004BF00100706046F80BB042E1686800F0A6
:100270000301012940F0AB80C008C0000190C00814
:100280001F2839D8AC68D5F80C800090454508BFC8
:1002900000F01AFFA54208BF00F016FF6868009939
:1002A000C008C000B0EBC10F18BF00F00DFF0099EF
:1002B00007F1280000EBC100844206D03A6994425D
:1002C000C0F08080E168A9427CD1A04506D10098A9
:1002D0003968012282409143396075E0804506D03B
:1002E000386980456ED3D8F80800A8426AD1C4F8AE
:1002F0000C80C8F8084067E0EC68D5F81880AC427C
:100300000CD0A8683969884222D3C168A94204BFC9
:10031000A168A9421CD1C460A0601BE005F11402D1
:10032000146834B905F1100214689CB101E01A4652
:10033000146804F114031968002902BF04F11003C2
:1003400018680028F3D139698A4228BF106001D2A9
:1003500000F0BAFEB8F1000F36D0E96907F59870E1
:1003600000EB81000268954208D10460A4B9E869F5
:100370007968012282409143796025E0386980459F
:1003800008D3D8F81000A84214BFC8F81440C8F821
:10039000104001E000F098FEB4B139698C4211D3ED
:1003A000C4F81880286928B1884226BF206184617A
:1003B00000F08AFE686938B13969884202D3606109
:1003C000846101E000F080FE01982D188344686884
:1003D0004008400068604BF0010171604FEADB04A7
:1003E00046F80BB01F2C23D807F1280000EBC408F7
:1003F0004546BBF1100F38BF00F066FE386820FAA2
:1004000004F1C90705D4012101FA04F404433C6056
:1004100007E0D8F80800396988422CBF054600F08B
:1004200053FEC8F80860EE60B560C6F80C8060E066
:100430005FEA1B2008BF002123D0B0F5803F28BF12
:100440001F211ED2A0F58072120C02F0080290400B
:10045000A0F58051090C01F004018840A0F580430B
:100460001B0CC2F10E0203F00203521AD21A98407A
:1004700002EBD032D01D2BFA00F101F0010101EBAB
:10048000420107F5987202EB8100F161002272616E
:1004900032617A6822FA01F3DB0707D4012303FAF9
:1004A00001F1114379600660B0611DE002681F2907
:1004B0001DBF4908C1F119010BFA01F1594600E0CD
:1004C00002465068C008C000584516D002F110031B
:1004D000CC0F03EB8403490018680028F0D1386979
:1004E000834204D31E60B261F660B66001E000F0A2
:1004F000EBFD09F10800BDE8F68B396990688A4286
:1005000028BF8842F3D3C6609660B060F2600020D6
:10051000B061EEE72DE9FE4F04468B46A5692E46F5
:10052000904699463146FFF713FEA8F1280201686C
:10053000406801EB000AAAF1270111F007000EBF85
:100540000021C1F1080101F007010AEB0100A0F14F
:100550002F0706F11000874238BF374607F1180011
:1005600001905946002000902046FFF719FE07F140
:10057000080010F0070F18BF00F0A6FD1B207860E0
:1005800007F1080104F5E07090E80C5081E80C5088
:10059000C0F800B0C0F80480C0F80C9081600198E9
:1005A000009900E0001D07224260491C00F108028A
:1005B0005245F7D30129D8BF00F086FDB74200F0BD
:1005C0009580BF1B301D311DC05940084000C851E7
:1005D00047F0010171604FEAD70BF751BBF11F0FD4
:1005E00021D804EBCB0000F12805A846102F38BF16
:1005F00000F06AFD206820FA0BF1C90705D401213B
:1006000001FA0BF10843206006E0A86821698842DE
:100610002CBF804600F058FDAE60C8F80C60C6F8EC
:100620000880F5606FE0380A08BF002123D0B0F5DC
:10063000803F28BF1F211ED2A0F58072120C02F04D
:1006400008029040A0F58051090C01F00401884097
:10065000A0F580431B0CC2F10E0203F00203521AF4
:10066000D21A984002EBD032D01D27FA00F101F0E7
:10067000010101EB420104EB8102002302F59870B5
:10068000F16173613361626822FA01F3DB0707D419
:10069000012303FA01F1114361600660B0611DE0BE
:1006A00002681F291DBF4908C1F1190107FA01F1AC
:1006B000394600E002465068C008C000B84216D073
:1006C00002F11003C80F03EB8003490018680028EB
:1006D000F0D12069834204D31E60B261F660B56038
:1006E00011E003B0BDE8F04F00F0EEBC0BE0216973
:1006F00090688A4228BF8842F3D3C6609560B06094
:10070000F2600020B06103B0BDE8F08F2DE9F04148
:10071000574F05463868884608B9FFF728FDB9687D
:1007200001EB08002F30491E20EA010188457DD2E7
:1007300005F5D876B06828B1326889188A4275D232
:10074000884273D300F0C4FC01001CBF0C6811F197
:10075000010F6BD03068201805F5D87230605368EF
:10076000984238BF18467060A86960BB286908B114
:10077000814200D22961316174610020F06105F18C
:100780002802386868624FF0FF3028620020D2608B
:10079000926002F1080353611361801C103220281B
:1007A000F5D33448854208BFA4F1280228D055F873
:1007B000040CC00805EBC002A2F108000A19121AC5
:1007C000283A01461CE005F5E070024600E0926818
:1007D0007AB3136857683B449942F8D1137B1F07DB
:1007E00027D4AB691768BB4223D3D2F804C067444F
:1007F000BB421ED2A444C2F804C0E868A96922180A
:100800002846FFF7CDFC1FE08068C0B10368934223
:10081000FAD1027B130712D4026801604368E4181E
:10082000446043462846BDE8F041D2E40020BDE8DC
:10083000F0812A69914238BF29610A19E5E700234E
:1008400022462846FFF766FEE8688045EED2A0EB18
:100850000800A969E86001EB0802AA6140F0010004
:10086000506048F00300486001F10800BDE8F081E5
:10087000540400209C0000206859883C2DE9F84F62
:1008800000258946090AC9F1000B08BF002323D0BF
:10089000B1F5803F28BF1F231ED2A1F58072120C34
:1008A00002F008029140A1F580531B0C03F00403F1
:1008B0009940A1F58044240CC2F10E0204F0020418
:1008C000D21A121BA14002EBD132D11D29FA01F339
:1008D00003F0010303EB4203074607F5987858F845
:1008E000230030B31F2B0FBF4C465C08C4F1190422
:1008F00009FA04F4AC46594600E064004268D208A4
:10090000D200A2EB09028A4203D21100054600F090
:100910006881426910304FEAD47B50F82B00002ADE
:100920001CBF824294460028E7D18B466046B0BB8C
:10093000BDBB012000FA03F35B0058420343786813
:10094000034000F04D81584203405B1E180B00F03D
:100950001000C340590901F00801CB409A0802F089
:100960000402D3405C0804F002040818E3401018A5
:10097000C3F3400620183044F3401B1858F82300F6
:100980000DE008464168C908C900A1EB09015945B5
:100990003CBF8B46054601690029F2D14069002819
:1009A000F0D1002D00F01C81B868A0EB0900834550
:1009B00080F0168138698542C0F010816868C008EF
:1009C000C00009EB0B01884218BF00F07DFB05EB6E
:1009D0000906B54280F00281EC68D5F818A0AC4257
:1009E0000CD0A8683969884222D3C168A94204BFE3
:1009F000A168A9421CD1C460A0601BE005F11402EB
:100A0000146834B905F1100214689CB101E01A466B
:100A1000146804F114031968002902BF04F11003DB
:100A200018680028F3D139698A4228BF106001D2C2
:100A300000F04AFBBAF1000F36D0E96908EB8100FB
:100A40000268954209D10460200014D1E8697968F0
:100A5000012282409143796026E03869824508D3BB
:100A6000DAF81000A84214BFCAF81440CAF81040BF
:100A700001E000F029FBBCB13869844212D3C4F80C
:100A800018A0286930B13969884226BF2061846185
:100A900000F01AFB686938B13969884202D3606195
:100AA000846101E000F010FBBBF1100F0CD2D944BF
:100AB00049F003006860291D281D50F8090040F026
:100AC000010041F8090088E049F0030068604BF03C
:100AD000010070604FEADB0046F80BB01F281DD8FC
:100AE00007EBC00101F12804396821FA00F2D207AE
:100AF000A34605D4012202FA00F00843386006E05C
:100B0000A068396988422CBF834600F0DDFAA660F0
:100B1000CBF80C60C6F808B0F4605EE05FEA1B201A
:100B200008BF002123D0B0F5803F28BF1F211ED26F
:100B3000A0F58072120C02F008029040A0F58051DE
:100B4000090C01F004018840A0F580431B0CC2F1A0
:100B50000E0203F00203521AD21A984002EBD0326E
:100B6000D01D2BFA00F101F0010101EB4201F1610E
:100B700000227261326108EB81007A6822FA01F387
:100B8000DB0707D4012303FA01F111437960066002
:100B9000B0611DE002681F291DBF4908C1F119019C
:100BA0000BFA01F1594600E002465068C008C00047
:100BB000584518D002F11003CC0F03EB8403490011
:100BC00018680028F0D13869834204D31E60B261EE
:100BD000F660B66001E000F077FA13E100F074FA15
:100BE0000DE18B46A3E6396990688A4228BF8842A6
:100BF000F1D3C6609660B060F2600020B061ECE7AF
:100C00002DE9F84F06468846716848420140491E62
:100C1000080B00F01000C1404A0902F00802D14060
:100C20008B0803F00403D9404D0805F002051018A5
:100C3000E9401818C1F34004281806F5987A2044B2
:100C4000E14009185AF821104868C008C0000D4654
:100C5000A0EB080909E001464868C008C000A0EB05
:100C6000080048453CBF81460D4608690028F2D17E
:100C700049690029F0D130698542C0F0BE806868BA
:100C8000C00808EB090BC000584518BF00F01CFA5B
:100C900005EB08008542009080F0AF80EF68AC69FA
:100CA000AF420CD0A8683169884222D3C168A942FA
:100CB00004BFB968A9421CD1C760B8601BE005F148
:100CC0001402176837B905F1100217689FB101E0E7
:100CD0001A46176807F114031968002902BF07F1C3
:100CE000100318680028F3D131698A4228BF1060C8
:100CF00001D200F0E9F9002C31D0E9690AEB81005A
:100D00000268954208D107608FB9E86971680122CD
:100D100082409143716022E03069844205D32069AA
:100D2000A84214BF6761276101E000F0CDF9B7B1B7
:100D30003069874211D3BC61286930B1316988427A
:100D400026BF3861876100F0BFF9686938B1316941
:100D5000884202D37861876101E000F0B5F9B9F10A
:100D6000100F0BD24BF003006860291D281D50F8AE
:100D70000B0040F0010041F80B003DE048F003019A
:100D8000696049F00100291D41F80800009840F809
:100D90000990D6F808804FEAD80BBBF1200F28BF86
:100DA00000F092F9B8F1000F22D006EBCB00776982
:100DB00000F12804A246B8F1100F38BF00F084F902
:100DC000306820FA0BF1C90705D4012101FA0BF1B3
:100DD0000843306006E0A068316988422CBF824633
:100DE00000F072F9A760CAF80C70C7F808A0FC60A0
:100DF000C6F808900098706104E000F065F90020E2
:100E0000BDE8F28F05F10800BDE8F28F2DE9FE4F35
:100E10000546AFF30080F52DDFF8A86280F004816D
:100E20000B2D31BF10250B35ED08ED003068EC08B7
:100E3000E04010F0030F46D0C04300F00100041959
:100E400006F1280000EBC408E700D8F808506868ED
:100E5000C008C000B84218BF00F036F9D5F80890B5
:100E6000454508BF00F030F94D4508BF00F02CF9AA
:100E70006868C008C000B84218BF00F025F9C8452E
:100E800007D13168012000FA04F421EA0404346037
:100E90000DE03069814508D3D9F80C00A84204D18F
:100EA000C8F80890C9F80C8001E000F00DF947F08F
:100EB00003006860291D281D05F10804C05940F091
:100EC0000100C851F8E0B168A94280F0BE80002856
:100ED00000F0A1804FF0010808FA04F1490000FA7F
:100EE00004F4484201430C4060420440641E200B5D
:100EF00000F01000C440610901F00801CC40A208D4
:100F000002F00402D440630803F002030818DC4036
:100F10001018C4F3400718183818FC40241806F1BC
:100F2000280000EBC40AE700DAF80890D9F80400BA
:100F3000C008C000B84218BF00F0C6F8D9F808B021
:100F4000D14508BF00F0C0F8D94508BF00F0BCF893
:100F5000D9F80400C008C000B84218BF00F0B4F8C7
:100F6000DA4506D1316808FA04F421EA0404346051
:100F70000DE03069834508D3DBF80C00484504D107
:100F8000CAF808B0CBF80CA001E000F09DF845F0DD
:100F90000300C9F804007F1B09F1040147F00100B8
:100FA000485109EB05000190C751B4684FEAD40AD3
:100FB000BAF1200F28BF00F087F834B3CDF800A0B5
:100FC00006F12800756900EBCA0AD346102C38BF19
:100FD00000F07AF83168009821FA00F2D30704D4BF
:100FE00008FA00F00843306007E0DAF808003169D9
:100FF00088422CBF834600F067F8CAF80850CBF847
:101000000C50C5F808B0C5F80CA0B76009F1080489
:101010000198706150E07068C0B329463046FFF710
:10102000EFFD040011D047E015F1400F28BF4FF04D
:10103000FF350AD20B35ED087068ED0028B129465E
:101040003046FFF71BFC040036D1B068A8421DD320
:10105000411B726910290AD350197061B16041F0C7
:1010600001034360415045F0030555600BE000214A
:10107000B1607161131D40F003015160111D0958E9
:1010800041F00101195002F1080415E0F0688542B1
:101090000DD2401BB169F0604A19B26140F0010005
:1010A000506045F003054D6001F1080404E0294655
:1010B0003046FFF72BFB0446AFF300802046FFF7D6
:1010C00022BB00009C000020012000F017B80000A7
:1010D0000749086808B1002070470648C008C000EA
:1010E00008600549C908C900091A0160704700BFB6
:1010F000A0040020B70C0020B014002080B5AFF38E
:101100000080024A11001820ABBEFBE72600020057
:101110002DE9F0439FB000BF66A6269CDFF8E48A65
:1011200002918DF83B4000210B914FF0FF370446B0
:1011300091461D460AE019F8011B0298A0470028B5
:10114000029000F0A4800B98401C0B9099F80000CE
:1011500050B12528EFD1002000210590069107907D
:10116000089109900A9103E00B98A7E041F0010172
:1011700019F8010F2028F9D023280CD02B2804D0EF
:101180002D2805D0302809D083E041F00201EFE797
:1011900041F00401ECE741F00801E9E741F01001FA
:1011A000E6E700200D900AE00D98404505DA00EBD7
:1011B000800302EB4302303A0D9209F1010999F8DC
:1011C0000020A2F130000A28EED399F800002E2862
:1011D00018BF0C9726D119F8010F2A2808D12868C2
:1011E000286009F1010950F8042B28600C9219E0DD
:1011F0002D280CBF19F8010B002000220C920BE0E7
:1012000040B90C9A424505DA02EB820203EB420335
:10121000303B0C9309F1010999F80030A3F1300239
:101220000A2AEDD3ADF83810304699F8001000F0D6
:1012300081FE08B119F8010B8DF83A009DF83A00CB
:10124000682804BF99F80010682903D162208DF83E
:101250003A0008E06C2804BF99F800006C2804D11B
:1012600071218DF83A1009F1010910A804902A465D
:1012700019F8013B6946204600F060F838B910AA19
:101280006946204600F08CF900287FF55FAF3846AC
:1012900014E02A2885D12A682A6052F8040B2A60B3
:1012A00000280D9003D540420D9041F0040109F152
:1012B00001098AE7686A6C747A4C00001FB0BDE8C7
:1012C000F083622820D0682811D06A2803D06C28C7
:1012D00027D0712825D10868C01D20F007000860BC
:1012E000D0E9002308300860194610467047002AEC
:1012F0000A680A60106803D0121D0A6000B217E085
:10130000121D0A6080B217E0002A0A680A6010689D
:1013100003D0121D0A6040B20AE0121D0A60C0B27A
:101320000AE0002A0A680A60106803D0121D0A60E9
:10133000C1177047121D0A600021704770B51C4626
:101340000D46B4F125002E69114600F017811C38B6
:101350006AD0001F022867D9133843D0093863D0F8
:10136000801E16D0401E1ED0401E02285CD9001FD1
:1013700019D0401F00F08380401E33D0401E00F083
:10138000CD80C01E00F0D880801E2BD0C01E29D07A
:10139000FAE06869421C6A610A680A6052F8043B14
:1013A0000A603354FAE095F83A000122FFF789FF0A
:1013B000C5E900010023994204DA6869411C6961AA
:1013C0002D210DE0288F810704D56869411C6961D2
:1013D0002B2105E0C00722D56869411C69612021E5
:1013E00031541CE095F83A000022FFF76AFFC5E986
:1013F000000195F83800010711D5D5E90023002038
:10140000834208BF82420AD044F02000782806D1E7
:10141000686930213154401C411C696134542146B3
:1014200068693044E86083E00868C01D20F0070068
:101430000860D0E9002308300860C5E90023D5E939
:101440000001C80F04D06869411C69612D210DE0BD
:10145000288F810704D56869411C69612B2105E04B
:10146000C00704D56869411C69612021315468694D
:101470003044E8602146284600F0C4F98EE005F1CA
:101480003A02507820B14FF0FF340FF648205EE06A
:101490001078622808D0682824D06A2812D06C28D6
:1014A0002ED071280ED02BE00A680A6052F8040B87
:1014B0000A6020B94FF0FF340FF6302047E0E96AA8
:1014C00001706BE00A680A6052F8040B0A6020B9E8
:1014D0004FF0FF340FF6142039E0EA6AD317C0E961
:1014E00000235BE00A680A6052F8040B0A6020B926
:1014F0004FF0FF340FF6F41029E0E96A01804DE067
:101500000A680A6052F8040B0A6020B94FF0FF34F1
:101510000FF6D8101BE0E96A01603FE00A680A6034
:1015200052F8040B0A600021C5E90001EE60782141
:10153000284600F0BBF831E00868086050F8044B1A
:101540000860EC603CB94FF0FF340FF6B81000F0C3
:10155000FDFC201A70BD2E6B002E04D5204600F035
:1015600015FD044608E032460021204600F02AFD21
:10157000002814BF041B3446AC610FE06869411CAD
:1015800069612521315409E06969481C6861252297
:101590007254210002D0411C69613454002070BD96
:1015A0002DE9FC410F460646796B7869BC6A091A39
:1015B000386A091AB869091A786A091AF869091A99
:1015C00097F838000C1B410790460FD42021002CBF
:1015D0008DF800100ADD254601236A46394630465B
:1015E00000F060FC00285DD16D1EF5D17B6942469C
:1015F0003946304600F056FC002853D130208DF893
:1016000000003D6A002D09DD01236A463946304657
:1016100000F048FC002845D16D1EF5D1BB69FA6881
:101620003946304600F03EFC00283BD130208DF892
:1016300000007D6A002D08DD01236A4639463046E8
:1016400000F030FC70BB6D1EF6D1F868B969FB691B
:1016500042183946304600F025FC18BB30208DF882
:101660000000BD6A002D08DD01236A463946304678
:1016700000F018FCB0B96D1EF6D197F8380041079C
:101680000DD52021002C8DF8001008DD01236A46BD
:101690003946304600F006FC20B9641EF6D1002021
:1016A000BDE8F6814FF0FF30BDE8F6812DE9FC473B
:1016B00007468A463E69BAF16F0F08BF082405D075
:1016C0004AF02001782914BF0A2410243C25D7E9C8
:1016D0000023BAF1640F18BFBAF1690F904699461A
:1016E00006D100218B4203DAD8F1000869EB4909E1
:1016F0000020814508BF80451FD1386BE8B9082C10
:101700004CD197F83800010748D530203B2586F8A2
:101710003B0043E000280ED597F8380000F0140095
:10172000102808D17A6B7869121A386A121A511A7D
:101730000029C8BF3962BDE8F3878DF800A0404694
:1017400049462246E31700F069FC3032D0B26D1EE4
:101750003A28019504DB9DF80000A0F151018A1898
:101760007255404649462246E31700F057FC804632
:1017700089460020814508BF804503D0F86871196B
:101780008842DCD3082C09D197F83800010705D529
:10179000715D302902D06D1E30207055C5F13C01BD
:1017A000B9617019F860386B8142B3DA411A396255
:1017B0004FF6EF70398F01403987BDE8F3872DE987
:1017C000D04306460F4614464FF00008DFF8389421
:1017D00012E0E00707D542464B463046394600F056
:1017E00035FD06460F464046494642464B4600F008
:1017F0002DFD641080468946002CEAD130463946DA
:10180000BDE8D0832DE9F34F054641F020048DB0AB
:10181000D5E90089612C02AE09D0286B002848BFA9
:10182000062003D408BF672C01D101202863D5E925
:10183000002358004015401C0ED119030CD0032082
:10184000A8619DF8380061381A2802D20FF2D061E1
:1018500011E00FF2D0610EE058004015401C0FD18E
:1018600019030DD10320A8619DF8380061381A28AA
:1018700014D30FF2B861E868032200F0B9FDD3E198
:10188000194621F00043B3F5801F10460DD2002702
:10189000BB4208BFBA42019703D111E00FF2886141
:1018A000E9E701AA00F0F8FD0AE0DFF8607307EB52
:1018B0001352DFF85C3301921940DFF858331943B3
:1018C000C5E90001612C0ED1E86830210170811C4E
:1018D000E9609DF8381061290CBF782158214170CA
:1018E0006869801C6861D5E900AB2BF000430020DB
:1018F0002AF00002834204BF8242002300F05A8192
:10190000612C40F0A980286B00284CBF2120401C8E
:1019100000904046009F7F1C49460022002300F0B3
:10192000F3FDD94601988DF8082038BF89F00049A9
:10193000001F0190002FD0460DF1090040F34981AE
:1019400040F2FF71DFF8D0B20C910646404649469E
:101950000022002300F0F0FD80F03A814800400DA5
:1019600000F11C0210D0002A0EDD0C98824205DB2B
:1019700009F0004040EA0B01002013E0A4480840B1
:1019800040EA025140460DE029F00043002028F0D3
:101990000002834208BF82420FBF40461C224046DD
:1019A00000F0E2FD8046894600F07CFEFF1F002F1C
:1019B000044609DD00F094FE02460B4640464946C7
:1019C00000F0A0FE80468946F01D072104E004F0E7
:1019D0000F0200F8012D2411002C01DD491EF6D55F
:1019E000491E5CBF002200F8012DF9D5ECE0002073
:1019F000194602AA0A4400E05B1E12F80149491E7A
:101A00008442F9D00F2804D10DF10900425C521C28
:101A10004254002904D50198001D02AE5B1C0190C0
:101A2000591E12D49DF838007218147804F1300849
:101A30005FFA88F4392CC4BFA0F13A04A044491ECF
:101A400002F80189F1D58DF83800286B002840F1A3
:101A5000B080591E2963ACE040464946002200236D
:101A600000F052FD019938BF89F0004947F29750C4
:101A700041436A4A91FBF2F20192D2F1070204DD7E
:101A800040464946FFF79BFE0AE052420020644967
:101A9000FFF795FE02460B464046494600F0A4FE7D
:101AA0008046662C286BDFF87CB106BF019F0A37A1
:101AB00006273F18142FC8BF142730208DF80800C0
:101AC00089460DF1090000E03046002F34DD06465E
:101AD0004046494600F0ACFF01460A4606F10803BD
:101AE00004200A26B2FBF6F606EB860EA2EB4E02A7
:101AF000303203F8012C0A22B6FBF2F202EB820E1E
:101B0000A6EB4E063036401E03F8026DE9D1083FC1
:101B1000002F03F10806D7DD084600F09DFF0246BE
:101B20000B464046494600F0EDFD00225B4600F0C2
:101B30008DFB80468946CBE70DF10901401A0DF176
:101B4000090604E00199491E401E0191761C317876
:101B50003029F7D0662C02D10199491C03E0652C8D
:101B60000CBF012100212B6BCB189842B8BF431E3C
:101B7000002B1ED4834204DAF05C3528A8BF39203C
:101B800000DA30201946721E02EB010800E05B1EED
:101B900018F80199491E8145F9D0392802D1705CA5
:101BA000401C7054002904D50198401C16465B1C4B
:101BB0000190019800B200901BB29DF83810324697
:101BC000284600F035F82FE0C61D002F3FF7BEAEC7
:101BD00030460DF10901401A009903468842C8BFFA
:101BE0000B46002B0DF109063FF52FAF8342BFF6E0
:101BF000FEAE0DF10900C05C07287FF7F8AE0F209C
:101C0000F6E60000CBCCCC0C0000244002FCFFFF29
:101C1000FFFF0F800000E03F0000F07FA086010082
:101C20000000F03F84D797410FB0BDE8F08F00006F
:101C30002DE9F84783B006468A461746984600F0D5
:101C400019FFB8F1000F406A356B90F8009002DC84
:101C50004FF00108B6A7BDF930404AF020006628D1
:101C600008BF641C15D0672840F0848014F1040F6D
:101C7000C0F28680AC4280F2838096F83800641C03
:101C8000010702D4A845B8BF454620B22D1A48BF67
:101C900000250FFA84FAF068B169BAF1000F25DC6B
:101CA0004A1C30234354002D03DC96F8380001070A
:101CB00003D5F06800F80290521C15EB0A0FB8BF6C
:101CC0006C4220B2441941424445B8BFA046B261BB
:101CD00071620FFA88F5F561F068B3692A463946F2
:101CE000184400F085FB641BB462C4E022B2904546
:101CF000084417DA4246394600F07AFBB06940449E
:101D0000B061AAEB0801002D716203DC96F838106F
:101D10000A0705D5F16801F80090F069401CF061F0
:101D2000B562A8E0394600F063FBB069002D50446D
:101D3000A8EB040803DC96F838100A0703D5F1680D
:101D400001F80090401CB0610FFA88F08542F068FD
:101D5000B369B8BFA8460FFA88F207EB0A01184426
:101D600000F046FBB0690FFA88F10844B061681AC8
:101D7000706280E0BAF1610F14D14FF0700A16E082
:101D8000A84504DA96F838100A0758BF45466D1E74
:101D900048BF0025BAF1670F14BF4FF0450A4FF056
:101DA000650A04E0BAF1410F08BF4FF0500AB1696B
:101DB000F368481CB061002D17F8012B5A5403DC5E
:101DC00096F838100A071BD5F168431CB36101F877
:101DD0000090002D14DDA8F101080FFA88F085426B
:101DE000F068B8BFA8460FFA88F23946184400F0E8
:101DF000FFFAB0690FFA88F108446D1AB061756294
:101E0000F068B1690844002C80F800A003D42B21AD
:101E10004170811C03E02D2141706442811C00202F
:101E20006A460AE023460A2493FBF4F404EB840593
:101E3000A3EB450302F8013B401C24B2002CF1DC6B
:101E4000012806DC4AF02002652A04BF302201F88E
:101E5000012B48B9302001F8010B07E0401E1DF8A6
:101E60000020303201F8012B0028F7DCF068B2695D
:101E70001044091AF16196F8380000F01400102897
:101E80000DD17169B0694118706A4118F069411843
:101E9000B06A4118706B8142BCBF411A316204B014
:101EA000BDE8F087F8B505460E4617461C460020EB
:101EB00074B117F8011BB068A847B06030B1F06A80
:101EC000401CF0620020641EF3D1F2BD4FF0FF30E1
:101ED000F2BD00007072696E74665F733A20256E01
:101EE00020646973616C6C6F776564007072696EF1
:101EF00074663A2062616420256E20617267756D98
:101F0000656E74007072696E74665F733A20626108
:101F10006420257320617267756D656E7400000022
:101F20006E616E004E414E00696E6600494E46007D
:101F3000300000000278C9B28A421AB11CBF10F802
:101F4000012FF9E718BF00207047000080B500B9E5
:101F500006A005490B681BB122220021984701E029
:101F6000FFF7B2F8222002BDA4040020636F6E7355
:101F7000747261696E742068616E646C65723A2077
:101F8000626164206D6573736167650000F1010330
:101F9000810704D010F8011B89B18107FAD10268CA
:101FA000B2F10131914311F0803F04BF50F8042F8A
:101FB000F6E710F8011B11B110F8011BFBE7C01A7E
:101FC00070470000C9B2830706D0521E22D310F812
:101FD000013B9942F7D11FE0083A13D302F1040202
:101FE00041EA012141EA014150F8043B121F21BF9F
:101FF0004B40A3F1013C2CEA030C1CF0803FF3D0D2
:10200000C9B2001F083210F8013B521E28BF91EAE6
:10201000030FF8D818BF0120401E7047B3BBD9B1D9
:10202000B2F5803F7DD2022A1ED98C46B1FBF2F177
:1020300002FB11C31B0443EA1043B3FBF2FC02FB97
:102040001C3380B240EA0343B3FBF2F002FB1032D0
:1020500040EA0C4000237047022A05D98446B0FBB1
:10206000F2F002FB10C270474AB105D100F0010244
:1020700049085FEA3000704700220023704700F0F3
:10208000FDBC0B000200002100207047904271EB64
:10209000030CF6D3B3F5803F2FD2F0B5B3FA83F734
:1020A000B1FA81F4A7F10F0E3D1B5340CEF120068B
:1020B00002FA0EF2F3415340B5F10F0746D80F3C38
:1020C0002C444140C4F12006A040F1414140B1FB05
:1020D000F3F603FB1611A2FB0645001BA94102D231
:1020E000761E8018594180EA010221FA0EF362FA45
:1020F0000EF200215A403046F0BD30B4B1FBF3FC83
:1021000003FB1C11A2FB0C45001BA94103D2ACF13F
:10211000010C8018594130BC02460B466046002134
:102120007047B2F1807F65D3F0B5B2FA82F7B1FAA9
:1021300081F4C7F10F063D1B22FA06F307F1110ED9
:10214000F24120355A40B5F10F07B8D94140C4F1EA
:102150002006A040F1414140B1FBF3FC03FB1C1100
:10216000A2FB0C45001BA94103D2BCF1010C801855
:1021700059410F2F12D30F3FC90341EA5041B1FB20
:10218000F3F603FB1611A2FB0645D4EBC030A941C0
:1021900002D2761E8018594146EACC3C07B3414032
:1021A000C7F12006B840F1414140B1FBF3F603FB13
:1021B0001611A2FB0645001BA94102D2761E80180B
:1021C000594180EA010221FA0EF3C7F1200462FAB4
:1021D0000EF20CFA07F05A402CFA04F13043F0BD2D
:1021E00080EA010221FA0EF3002162FA0EF2604643
:1021F0005A40F0BD8C46B1FBF2F102FB11C31B0249
:1022000043EA1063B3FBF2FC02FB1C331B024CEAF3
:10221000002043EA1063B3FBF2FC02FB1C331B02F9
:102220004CEA002043EA1063B3FBF2FC02FB1C33D0
:102230001B024CEA002043EA1063B3FBF2FC02FBF2
:102240001C324CEA0020002370470000B0B581EA40
:10225000030C0CF0004C40F2FF7515EA11541DBF41
:1022600015EA1357AC42AF4239E0E41923EA45536B
:1022700043F48013C90241F0004141EA505EC702B5
:102280001100A7FB020200284FF00000EEFB012026
:102290004FF00001E3FB072118BF42F00102401894
:1022A00000214941E3FB0E01A4F580640F0302D233
:1022B00052004041494154F101046CDD470872F17C
:1022C000004250F1000051EB0451A1F580115CBFB8
:1022D00041EA0C01B0BD4CEA05510020B0BD05EA51
:1022E0001357AC4214BFAF4241E050EA410E1CBF4D
:1022F00052EA430E02E061460020B0BD24423C4455
:102300001BD15FEA070EF6D0090302BF0146002089
:10231000AEF1140EB1FA81F7AEEB070401FA07FE35
:102320000C37C7F1200100FA07F7C8404EEA000E4B
:1023300023EA455343F48013A2E733F00043B3FA92
:1023400083F704BFB2FA82FE77440B3FE41BB7F178
:10235000200E2FBF02FA0EF3BB40C7F1200E22FA67
:102360000EFE38BF43EA0E03BA40641C82E750EA0F
:10237000410E14BF52EA430E6FF000014FF40017F4
:1023800017EB430F8ABF194617EB410FB5E74CEA2D
:1023900005510020B0BDD4F10104B4F120070FDADB
:1023A000C4F12007520828BF42F0010210FA07F5D5
:1023B00001FA07F7E1BF2A43E0403843E1400FE06C
:1023C000352C98DCC7F1200452EA400220FA07F2CB
:1023D00018BF42F0010231FA07F0A1400A43002180
:1023E00072F1004250F1000051EB0C01B0BD000051
:1023F00062B38B0708D0521E11F8013B00F8013B75
:1024000000F024808B07F6D1830740F0208000BFC6
:10241000103A07D330B4B1E83810103AA0E83810B9
:10242000F9D230BC530724BFB1E80810A0E8081067
:1024300044BF51F8043B40F8043BD20724BF31F8B5
:10244000022B20F8022B44BF0B7803707047121F39
:1024500017D35B0009D151F8043B20F8023B1B0C59
:10246000121F20F8023BF6D20BE051F8043B00F8B3
:10247000013B1B0A20F8023B1B0C121F00F8013B1A
:10248000F3D238BF121D521E24BF11F8013B00F8D1
:10249000013BF8D87047000010B5144600F002F870
:1024A000226010BDC1F30A5343B14A0012F5001F68
:1024B00028D2A3F2FE32A1EB0251704750EA410C40
:1024C00020D001F0004C31EA0C01B1FA81F204BFD6
:1024D000B0FA80F3D2180B3AB2F120032CBF00FA05
:1024E00003F1914041EA0C013EBFC2F1200C20FAF9
:1024F0000CF319439040524240F2FD33D21A01EBE3
:1025000003517047002270474FF4001C1CEB410F31
:1025100094BF1CEB430F09E041EA030C50EA4C0C5A
:1025200052EA0C0C03D2994208BF9042704714BF84
:102530008B428242704700004FF4001C1CEB410F9D
:1025400094BF1CEB430F09E041EA030C50EA4C0C2A
:1025500052EA0C0C03D28B4208BF8242704714BF70
:102560009942904270470000124254D440F2FF7CDE
:102570001CEA11530FD0634531D09B1863453CBF13
:1025800001EB0251704701F0004141EA0C5100207B
:10259000AFF30080704750EA410320D001F0004CB7
:1025A00091EA0C011CD0B1FA81F30B3B9A420DD990
:1025B000D21A994051EA0C01C3F1200C20FA0CFC0C
:1025C00061449840531C40F2FF7CD7E7914041EAB8
:1025D0000C01C2F1200C20FA0CF319439040704713
:1025E000B0FA80F31533202BE0D3202AEED3203A23
:1025F000203B9A4209D9D21A00FA03F141EA0C01B0
:102600000020531C40F2FF7CB8E700FA02F141EAD7
:102610000C0100207047524240F2FF7C1CEA11532B
:102620000DD06345DBD0B2EB030C3CBFA1EB0251F4
:1026300070470CF1010221EA035141F4801150EA84
:10264000410CCCD001F0004C352A27DC30B481EAB3
:102650000C01B2F1200309DAC2F12003044601FAA9
:1026600003F5D0402843D1409C400CE0C3F1200248
:10267000450020FA03F418BF44F0010421FA03F0E6
:1026800091400C43002174F1004550F1000051EBE2
:102690000C01244230BC7FF47BAF704761460020C0
:1026A00076E70000C1F30A5340F2FE329B1A14DDB4
:1026B000D3F120034FEAE17208DDC90241EA50512B
:1026C00041F00040D84080185040704703F2E1309C
:1026D00010B1D24382F000407047002070470000E4
:1026E000C11768B14840401AB0FA80F29040D21C3D
:1026F000C907C2F5846241EA025202EBD0214005CB
:102700007047000070B44FF0004591EA030F40F1AC
:10271000B7816B40841A71EB030603D2001BB141F1
:10272000121973414FF4001C1CEB410F34BF7CEBBA
:10273000430442E00C0DA4EB1356352E4FDC45EA62
:10274000C323DB0A45EAC121C912B6F120050DDD1C
:1027500063FA05F6EB4086EA0305124218BF45F01E
:102760000105C01851F100010CD213E062FA06F520
:10277000F2405540F3415A40B340F3405A4080186C
:10278000594107D349085FEA30005FEA350528BFA1
:1027900045F0010501F58011420875F1004250F144
:1027A000000041EB04514E0016F5001F70BC38BF0D
:1027B00070470020090D090570471CEB410F10D22E
:1027C00052EA43060BD0BCEB410F05D80C0DAB43CE
:1027D000661E342EB6DD02E0AB438018594170BC52
:1027E000704770BC70470000F0B540F2FF7581EA99
:1027F000030C0CF0004C15EA11541DBF15EA1357D9
:10280000AC42AF42E5E0BC41C1F31301C3F3130393
:10281000801A994143F4801304D2641E4000494158
:1028200080185941C90241EA5051B1FBF3F603FB4C
:102830001611A2FB0675D7EBC020A94102D2761E65
:1028400080185941C90241EA5051B1FBF3FE03FB24
:102850001E11A2FB0E75D7EBC020A94103D2AEF129
:10286000010E80185941890241EA9051760546EAE5
:102870008E2EB1FBF3F603FB1611A2FB0675D7EB08
:102880008020A94102D2761E80185941C90241EA2E
:1028900050514EEA060EB1FBF3F603FB1611A2FBF4
:1028A0000675D7EBC020A94102D2761E8018594187
:1028B000C90241EA5051B1FBF3F703FB1711A2FB28
:1028C0000735D3EBC020A94167F100070CBF0042D8
:1028D00047F0010766F3D5274FEA1E31B80814F513
:1028E000806412DDBD0775F1004250EB0E5051EBD4
:1028F000045111F5801F5CBF41EA0C01F0BD4CF0A2
:102900007F6141F0E0410020F0BDBD076D0840EA65
:102910000E5041F48011D4F10104B4F120060ADA1A
:10292000C4F120060200E04001FA06F3E14018433A
:10293000B24015430EE0342C13DCC6F1200445EA06
:1029400040056D0820FA06F2154321FA06F0A14071
:102950000D43002175F1004250F1000051EB0C01D4
:10296000F0BD00205FEA0C01F0BDCFB992185B41C9
:10297000B3FA83F704BFB2FA82F6BF190B3FB7F17F
:1029800020062FBF02FA06F3BB40C7F1200622FA49
:1029900006F638BF3343BA401CB1E419641E33E76E
:1029A0007F4231F00041B1FA81F404BFB0FA80F601
:1029B000A4190B3CB4F120062FBF00FA06F1A14088
:1029C000C4F1200620FA06F638BF3143A0403C1B74
:1029D0001AE7AC421ABF05EA1357AF4212E050EAB9
:1029E00041061CBF52EA4306BFE750EA41073046A2
:1029F00061461CBF41EA0551F0BD52EA430C08BFD5
:102A0000C143F0BD00204FF4001616EB410F98BFF4
:102A100016EB430F08BF16EB410F24BFC14305E07F
:102A200016EB430F0CBF61464CEA0551F0BD0000A8
:102A3000400D491840EA81200CD2490DA1F5806172
:102A4000491C40F0004005DBD1F11F0154BFC840D4
:102A5000C017704700207047014648B1B0FA80F1B6
:102A60008840C91CC1F58461090501EBD0214005EE
:102A70007047000000487047600000207047000069
:102A8000841A71EB030604D26E40001BB141121987
:102A900073414FF4001C1CEB410F34BF7CEB430629
:102AA00082E00C0DA4EB1356362E7BDC012E45EA9A
:102AB000C32341DC43EA525312BFD20292025B08A5
:102AC000240545EAC12141EA5051D2EBC020994189
:102AD00025D407D1B0FA80F610FA06F162D00020B2
:102AE000203608E0B1FA81F6B140C6F1200220FAA2
:102AF00002F21143B0404FEAF474B4EB465434F0A0
:102B000001064FEA74040AD8D6F50016760D04F0D3
:102B10000044F04061FA06F25040F1404840C00ADB
:102B200040EA415021F0004128BF5FEA500550F1D2
:102B3000000044EBD12135E0DB0A45EAC121C90A96
:102B4000B6F120050EDD42EA0242120CC5F1200664
:102B500003FA06F6EB4042EA06056D42984161F140
:102B600000010DE062FA06F5F240554063FA06FCFA
:102B700082EA0C02F3405A406D42904161EB03013E
:102B800011F4801F05D1641E620502D06D00404122
:102B9000494121F48011430875F1004350F10000D0
:102BA00041EB045170BC70471CEB410F15D223F070
:102BB000004352EA43060BD04FEA4C0CBCEB410FEA
:102BC00004D80C0D661E342EB7DDEBE7801A994150
:102BD00050EA410608BF0021E4E708BF1CEB430FA1
:102BE00028BF6FF00001DDE72DE9F0410400DFF8B8
:102BF000EC050568A0782870E678676815F101088B
:102C0000320039004046FFF7F3FBDFF8D40500F04F
:102C10000BFBBDE8F0810100DFF8C8054860082023
:102C2000C8605FF400300861012008750120487514
:102C30000420088108204881DFF8AC0508600020E6
:102C400070470100DFF88C0548600420C8604FF42D
:102C50008040086101200875012048754FF400701C
:102C600008814FF480604881DFF86C05086000201F
:102C7000704738B504000D002000FFF7E2FFDFF8D1
:102C80005805854203D12000FFF7DBFF0AE0DFF89B
:102C90005805854203D12000FFF7BDFF02E05FF039
:102CA000FF3000E0002032BD1CB50400217DE0684B
:102CB0002269104300F056FB2089ADF8000018206F
:102CC0008DF8030003208DF802006946606800F06B
:102CD0009DFB6089ADF8000004208DF80300694673
:102CE000606800F093FB002016BD1FB504005FF480
:102CF000E13000900020ADF804000020ADF806009F
:102D00000020ADF808000020ADF80C000C20ADF854
:102D10000A006946206800F01FFC0121DFF8B804B2
:102D200000F090FC002004B010BD7CB504000D0044
:102D3000160029002000FFF79CFF2000FFF7B4FFDA
:102D40002000FFF7D2FF4FF4807114F1240000F04F
:102D500014FD4FF4807114F1340000F00EFDDFF823
:102D60008C244FF4807114F1180000F0C4FDDFF8DA
:102D70008004019088200090DFF87834DFF8782410
:102D80000E21012000F0C7F8DFF8700401908820C0
:102D90000090DFF86C34DFF860242521012000F07A
:102DA0000CF904200090DFF85C34012201211E2080
:102DB00000F0A8FFDFF850040090032310224FF426
:102DC0000051102000F0F1FF0021E068226910435B
:102DD00000F0C8FADFF804040660DFF8300404608D
:102DE000002076BD10B50400617DE06822691043C3
:102DF00000F0B8FA0121206800F024FC21680120CD
:102E000000F01CF90421DFF8FC0300F0A3FF002010
:102E100010BD2DE9F64FA9B004001D00349E002C12
:102E200006D1DFF8EC0300F0FFF95FF0FF3055E06A
:102E3000002E01D4002D06D1DFF8D80300F0F4F9FC
:102E40005FF0FF304AE0002002905FF0FF30019019
:102E50002B0032002A999DF8A40000F0BAFD8346A9
:102E60009BF80370BF1D781E0090882006900020FC
:102E700005900DF11C08059A0699404600F0E8FF00
:102E8000042004900DF11D08049A59464046FFF7AE
:102E9000AFFA9BF803000390DBF8040001900DF1FA
:102EA0002108039A01994046FFF7A2FA9BF808000F
:102EB00007A9009A88545FF088085FF00009DFF8DE
:102EC00034A34A464146504600F0C2FF009A0DF135
:102ED0001D0114F1340000F0D8FC00202BB0BDE837
:102EE000F08FF8B504000F0015001E00200000F060
:102EF000E3FF3800C0B28DF8000028008DF8010013
:102F000030008DF8020001208DF80300684600F0C3
:102F1000D8FF0020F2BD2DE9F0438BB004000D0076
:102F200016001F00DDF84880DDF84C9001212000DC
:102F300000F008FA01230122290049B24FF4C060D1
:102F4000FFF7CFFF0096019710200290CDF80C807C
:102F5000002004908020059000200690002007901B
:102F6000002008904FF48050099000200A90694694
:102F7000484601F068F80121484601F082F8012234
:102F80000221484601F08CF800200BB0BDE8F08328
:102F900070B504000D0016000121200000F0D2F9E8
:102FA0009D4806600121924801F06BF801228021C2
:102FB000280000F08EFB002070BD2DE9F0438BB09F
:102FC00004000D0016001F00DDF84880DDF84C906D
:102FD0000121012000F0B6F901230022290049B2A5
:102FE0004FF4C060FFF77DFF484600F0A7FF009652
:102FF000019700200290CDF80C80002004908020E2
:1030000005900020069000200790002008904FF4C3
:103010004050099000200A906946484601F013F894
:103020000121484601F02DF8012240F224416A486E
:1030300000F017FB00200BB0BDE8F08338B50400AA
:103040000D000121012000F07DF9012240216F488F
:103050000068006800F03DFB002032BD2DE9F84318
:103060000024002569480068066840F224415A4857
:1030700000F04DFB002823D0B6F80080B6F804908D
:1030800000215E4800F0FDFF5C4801F019F8D0F126
:10309000880005000027AF420AD20122584800EB01
:1030A00007015A480068243000F0EFFB7F1CF2E76C
:1030B0008821524801F000F80121504800F0E1FF5A
:1030C00088275FF00008DFF838914246390048460B
:1030D00000F0BEFEBDE8F18338B55FF0FF34454D2A
:1030E0004FF4005000F0EFFF012803D14FF40050DF
:1030F00000F0FAFF31BD2DE9FC415FF0FF34002004
:103100008DF800003B4D88275FF00008394E42469D
:103110003900300000F09CFE00263C480068C07E6C
:10312000401D864217DA01222900384800683430F1
:1031300000F06EFB07006D1C17F1010F09D0374836
:103140000068401C354908602A48815D344800F019
:103150006BF8761CE1E73148006801280FDB2B484B
:103160000068C27E521D2948006801680120FFF7EF
:103170000FFF2C4800F058F800202849086000266E
:103180000D2E13DA0122694620480068243000F031
:103190003FFB040014F1010F06D09DF800101B48FE
:1031A0000068183000F04EFC761CE9E7BDE8F381BA
:1031B00038B504000D002100C9B289B2064800F0FC
:1031C00094FA8021044800F094FA0028F9D02000F5
:1031D00032BD000000080140003801409804002082
:1031E00094490008000C014000440040E92B00080D
:1031F000440002407402002004380140580002409C
:10320000FC0200200008004000100140940400204F
:10321000B449000804490008480002409C0400200A
:10322000744B0008244B00080EB4C0B5024603A836
:1032300000210190009101AB0121044878440C3039
:10324000FDF766FF06BC5DF810FB00BF51180000DB
:103250002DE9F04F0025002200210023614C246855
:1032600014F00C042600002E04D0042E05D0082EE5
:1032700006D026E05C4D056025E05B4D056022E050
:10328000584D2D6815F47015564E366816F4803674
:103290003100AD0CAD1C2A00002904D1534D05FBB3
:1032A00002F505600CE04F4D2D68AD0304D54F4D80
:1032B00005FB02F5056003E04B4D05FB02F50560DB
:1032C00001E0494D0560474D2D6815F0F0052D09C9
:1032D000474E765D0768F7404760424F3F6817F4F6
:1032E000E0673F0ADFF808C11CF807C0D0F804E027
:1032F0003EFA0CFEC0F808E0DFF8E8E0DEF800E097
:103300001EF4605E5FEADE2EDFF8E48018F80E80BF
:10331000D0F8049039FA08F9C0F80C90DFF8C4909E
:10332000D9F8009019F440495FEA9939DFF8C4A050
:103330001AF809A0D0F80CB0BBFBFAFBC0F810B02B
:10334000BDE8F08F0A00D2B2002A05D02A4A1268DE
:103350000243294B1A6004E0274A12688243264B35
:103360001A6070470A00D2B2002A05D0234A1268B8
:103370000243224B1A6004E0204A126882431F4B2A
:103380001A6070470A00D2B2002A05D01C4A12689F
:1033900002431B4B1A6004E0194A12688243184B1F
:1033A0001A6070470A00D2B2002A05D0154A126886
:1033B0000243144B1A6004E0124A12688243114B14
:1033C0001A6070470A00D2B2002A05D00E4A12686D
:1033D00002430D4B1A6004E00B4A126882430A4B09
:1033E0001A6070470410024000127A0000093D0084
:1033F00004000020140000201410024018100240A5
:103400001C1002400C10024010100240F0B50022C7
:103410000023002400250026002791F803C01CF09B
:103420000F0C91F803E05FEACE6E02D58A7852EA7B
:103430000C0C0A78120626D002681600002214002E
:10344000082C1FD20122A24015000A882A4013002E
:10345000AB4215D1A20015000F22AA401700BE43AF
:103460001CFA05F21643CA78282A03D10122A24089
:10347000426105E0CA78482A02D10122A2400261D5
:10348000641CDDE706600A88B2F5807F33DB4268A2
:10349000160000221400082C2CD25FF0010E14F14B
:1034A00008021EFA02FE75460A882A401300AB4243
:1034B0001ED1A20015000F22AA401700BE431CFA1D
:1034C00005F21643CA78282A07D15FF0010E14F1DD
:1034D00008021EFA02FEC0F814E0CA78482A07D192
:1034E0005FF0010E14F108021EFA02FEC0F810E0AF
:1034F000641CD0E74660F0BD10B402000023906861
:103500000C00A4B2204201D0012000E00020C0B293
:1035100010BC704710B402000023D0680C00A4B2A5
:10352000204201D0012000E00020C0B210BC704752
:103530000A0092B2026170470A0092B2426170477B
:103540001300DBB2002B03D00B009BB2036102E03F
:103550000B009BB2436170472DE9F84F86B082465D
:103560000C000025002600275FF000085FF000092E
:10357000A0890028D346BAF810104CF6FF7001401D
:10358000E088014300910098AAF81000BAF80C10E6
:103590004EF6F3100140A28820890243608902435D
:1035A000114300910098AAF80C00BAF814104FF6D5
:1035B000FF400140A089014300910098AAF814003F
:1035C00001A8FFF745FE1E48834501D1049900E09C
:1035D0000399BAF80C00000407D5192000FB01F08C
:1035E00022685200B0FBF2F206E0192000FB01F065
:1035F00022689200B0FBF2F26420B2FBF0F52D01DC
:103600002B001B09642000FB1323BAF80C000004F4
:1036100008D5D80032306426B0FBF6F010F0070071
:10362000054307E0180132306426B0FBF6F010F0D5
:103630000F000543AAF8085007B0BDE8F08F00005E
:10364000003801400A00D2B2002A04D0828952F424
:103650000052828104E083894DF6FF72134083811A
:1036600070472DE9F0410023002500275FF0000E90
:103670000C00A4B240F66A16B44280460C00E4B2D4
:103680006409E4B20E00B6B216F01F065FF0010C3A
:103690001CFA06FC012C02D118F10C0806E0022CE1
:1036A00002D118F1100801E018F114081300DBB280
:1036B000002B06D0D8F800305CEA0303C8F80030CD
:1036C00005E0D8F8003033EA0C03C8F80030BDE854
:1036D000F0811300DBB2002B03D0838A0B4383827B
:1036E00002E0838A8B4383827047CA05D20D8280B1
:1036F000704702000023080080B2B0F5007F1088F8
:10370000084201D0012000E00020C0B27047F0B4B0
:10371000040000270020002200260B009BB240F688
:103720006A15AB420D00EDB26D09EDB20B009BB214
:1037300013F01F035FF0010C1CFA03F3012D02D1FB
:10374000A089034006E0022D02D1208A034001E057
:10375000A08A03400A0092B2120A92B2012010FA23
:1037600002F220880240002B03D0002A01D0012061
:1037700000E00020C0B2F0BC704738B504000D0076
:10378000002C02D15FF0FF300AE0002060600020D2
:10379000A060681E20602800FDF738FBE060002074
:1037A00032BD816842688A1A01680A400068824214
:1037B00001D1012000E00020C0B27047816840685C
:1037C000814201D1012000E00020C0B27047010019
:1037D00088684A68801A09680840704738B504004C
:1037E0000D002000FFF7EAFF002802D05FF0FF3055
:1037F0000DE0E0686168405C28706068401C2168EA
:10380000491C90FBF1F201FB12006060002032BD08
:103810002DE9F04104000D001600002C02D15FF0EC
:10382000FF3017E02000FFF7C9FF002802D05FF04B
:10383000FF300FE02F005FF00008B04509DA3900D3
:103840002000FFF7CBFF002803D118F101087F1CEF
:10385000F3E70020BDE8F08138B504000D0020003A
:10386000FFF79FFF002802D05FF0FF300CE0E06818
:10387000A1684554A068401C2168491C90FBF1F2E6
:1038800001FB1200A060002032BD2DE9F0410400D0
:103890000D001600002C02D15FF0FF3018E0200070
:1038A000FFF795FF80462068401CB0EB0808B04544
:1038B00002DA5FF0FF300BE00027B74207DAE95D7C
:1038C0002000FFF7C9FF002801D17F1CF5E7002089
:1038D000BDE8F0810020DFF85C1308600020DFF80D
:1038E000541348600020DFF84C1388600020DFF894
:1038F0004413C86070472DE9F84304000D0016001A
:10390000002C02D03000002802D15FF0FF3013E01D
:10391000FFF7E0FFDFF81C030661A800FDF776FA69
:10392000606004275FF00008D4F804904246390034
:10393000484600F08DFA0020BDE8F283F0B40100A3
:10394000002902D15FF0FF3016E000200E784F789A
:1039500091F802C0CB784C6897EA06029CEA020212
:103960005A4000251800C0B2854203DA605D42402B
:103970006D1CF7E70A720020F0BC704738B50400F0
:103980000D002000C0B2002809D02000C0B20128DC
:1039900005D0A948FFF748FC5FF0FF3018E0200091
:1039A000C0B2002802D0012807D00DE0AA20A34908
:1039B0000870DD20A149487006E0BB209F490870CF
:1039C000DD209E494870FFE79C48FFF7B7FF0020C5
:1039D00032BD2DE9F04705000E0017001C00002C39
:1039E00005D0002F03D440F2DD50874201DB0020D8
:1039F00026E09348914948605FF080085FF0000935
:103A00008E48D0F804A04A464146504600F020FABD
:103A10008A4886708948C7700020B84205DA215C60
:103A2000864A52681154401CF7E784492800C0B206
:103A3000FFF7A4FF10F1010F01D1002000E07F4843
:103A4000BDE8F0872DE9F04104000D00002C05D100
:103A50007C48FFF7E9FB5FF0FF30E9E0754840681C
:103A600000280AD002286CD039D3042800F09580B1
:103A700076D3052800F0AD80D9E02800C0B2AA288E
:103A800011D17148FFF7D0FB25700020694908600B
:103A90000120684948606748C1682800C0B24140B9
:103AA0006448C1601AE02800C0B2BB2811D1664842
:103AB000FFF7BAFB257001205E49086001205D49CF
:103AC00048605C48C1682800C0B241405948C160A4
:103AD00004E05E48FFF7A8FBFFF7FCFEA7E0280024
:103AE000C0B2DD2811D15A48FFF79EFB6570002057
:103AF0005049086002204F4948604E48C16828007C
:103B0000C0B241404B48C1601AE02800C0B2DD2875
:103B100011D14F48FFF788FB6570012045490860C7
:103B20000220444948604348C1682800C0B241406F
:103B30004048C16004E04548FFF776FBFFF7CAFE46
:103B400075E04448FFF770FBA570032039494860D1
:103B50003848C1682800C0B241403648C16066E0BC
:103B60003D48FFF761FBE57004260027D4F8048088
:103B70003A003100404600F06BF92900C9B23748DD
:103B8000FFF752FB04202B4948602A48C1682800EF
:103B9000C0B241402748C16049E03148FFF744FBCB
:103BA000606824498968455422488068401C21493E
:103BB00088602048C1682800C0B241401D48C160EB
:103BC0001C488068E178884202D105201949486084
:103BD0002DE02448FFF728FB2572207A1549C96893
:103BE00088421ED113480068002803D01E48FFF702
:103BF0001BFB16E01D48FFF717FB6268A1781C4805
:103C0000FFF712FB0B480069002802D11948FFF7A3
:103C10000BFB2000074909698847FFF75BFE0A2074
:103C200006E01548FFF700FBFFF754FEFFE7002012
:103C3000BDE8F0816C040020084A000880040020E0
:103C400084030020244A00083C4A00084848000831
:103C5000C04A0008384B0008544A0008484B000886
:103C60006C4A000874490008AC480008D8480008AD
:103C7000D44A00087C480008E84A00087CB50400E3
:103C80000E0015004FF4E06000F016F920008DF8EA
:103C9000000030008DF8010028008DF8020001209E
:103CA0008DF80300684600F00CF9002076BD3EB5A3
:103CB00004000D0001212800FFF764FB200000F044
:103CC0003BFA40F2E730ADF804004720ADF80000C1
:103CD0000020ADF802006946200000F01DFB012124
:103CE000200000F082FB01220121200000F071FB86
:103CF0000121200000F05EFB00212800FFF742FBBD
:103D000000203EBD2DE9F84F04000D0016001F00F5
:103D1000DDF828805FF0FF39320092B2290089B2C5
:103D2000200080B2FFF7AAFF824641463800FFF725
:103D3000BEFF83461BEB0A0BBBF1000F05D5044801
:103D4000FFF772FA5FF0FF3000E00020BDE8F28F6D
:103D5000104B000838B504000D0001212800FFF7C2
:103D600011FB0121200000F025FB002032BD0000E6
:103D70002DE9FC4104000D0016001F00DDF8208035
:103D800001212000FFF7EEFAADF800508DF8036036
:103D90008DF8027069464046FFF738FB290089B26A
:103DA0004046FFF7C5FBBDE8F3812DE9FC41040067
:103DB0000D0016001F00DDF82080CDF800803B00CC
:103DC000DBB23200D2B2290089B22000FFF7D0FF67
:103DD000012000905FF08043002200211C20FFF7AB
:103DE00091FF0020BDE8F68138B541F28834012505
:103DF00001215FF0804000F0FDFA002820D0012171
:103E00005FF0804000F00DFB0E4800680A300D495D
:103E100008600C4800680C490968884210DB0020E3
:103E2000084908604FF400510848FFF773FBD0F1D0
:103E300001000200D2B24FF400510448FFF780FBAA
:103E400031BD00008C040020000000200010014063
:103E500062F30F2262F31F42401810F0030308D0F0
:103E6000C91A1FD3DB0748BF00F8012D28BF20F86F
:103E7000022D130030B414461546103928BF20E92E
:103E80003C00FAD8490728BF20E90C0048BF40F899
:103E9000042D890028BF20F8022D48BF00F8012D0D
:103EA00030BC7047C91818BF00F8012DCB0728BFD8
:103EB00000F8012D704700001B4901431B4A1160A7
:103EC0007047F0B4002200230F24C17800291FD0CE
:103ED0001649096811F4E061D1F5E061090AD1F1F0
:103EE00004052B00CC4045789D408678264035431C
:103EF0002D012A000E4D0678AA550125067816F0E8
:103F00001F06B5400B4E07787F1146F8275009E091
:103F10000121057815F01F05A940074D0678761197
:103F200045F82610F0BC70470000FA050CED00E0E3
:103F300000E400E000E100E080E100E002684FF60C
:103F4000FE710A40026000210160002141600021F1
:103F500081600021C1606849884206D167490968CB
:103F600051F00F01654A11606CE06549884206D145
:103F70006249096851F0F001604A116062E06149EC
:103F8000884206D15D49096851F470615B4A11604D
:103F900058E05D49884206D15849096851F470419A
:103FA000564A11604EE05949884206D15349096882
:103FB00051F47021514A116044E05549884206D1BC
:103FC0004E49096851F470014C4A11603AE0514978
:103FD000884206D14949096851F07061474A116029
:103FE00030E04D49884206D14C49096851F00F0133
:103FF0004A4A116026E04A49884206D14749096881
:1040000051F0F001454A11601CE04649884206D152
:104010004249096851F47061404A116012E0424916
:10402000884206D13D49096851F470413B4A11600C
:1040300008E03E49884205D13849096851F47021A9
:10404000364A1160704730B4002304686FF30E14D1
:104050008D680A6A15430A6915434A6915438A69D6
:104060001543CA6915434A6A15438A6A15432C43A6
:104070000460CA6842600A6882604A68C26030BCF4
:1040800070470A00D2B2002A04D0026852F001023E
:10409000026004E003684FF6FE721340036070474D
:1040A0001300DBB2002B03D003680B43036002E074
:1040B00003688B43036070470A0092B24260704706
:1040C000406880B27047010000220020CB0002D57A
:1040D000174B1B6801E0174B1B680B4201D00120F6
:1040E00000E00020C0B27047C10002D50B49086053
:1040F00001E00249086070470800024004000240E5
:104100001C000240300002404400024058000240BF
:104110006C00024080000240080402400404024097
:104120001C0402403004024044040240580402408F
:10413000000402400000024010B50400DFF86402F1
:1041400084420AD101214FF40060FFF72BF90021CE
:104150004FF40060FFF726F9DDE0B4F1804F08D19D
:1041600001210120FFF72EF900210120FFF72AF994
:10417000D1E0DFF83402844208D101210220FFF7A8
:1041800021F900210220FFF71DF9C4E0DFF81C022D
:10419000844208D101210420FFF714F900210420F2
:1041A000FFF710F9B7E0DFF80802844208D10121D7
:1041B0000820FFF707F900210820FFF703F9AAE01C
:1041C000DFF86802844208D101211020FFF7FAF8D5
:1041D00000211020FFF7F6F89DE0DFF8540284423A
:1041E00008D101212020FFF7EDF800212020FFF762
:1041F000E9F890E0DFF83C0284420AD101214FF453
:104200000050FFF7CFF800214FF40050FFF7CAF835
:1042100081E0DFF8240284420AD101215FF400200A
:10422000FFF7C0F800215FF40020FFF7BBF872E051
:10423000DFF8080284420AD101215FF48010FFF701
:10424000B1F800215FF48010FFF7ACF863E0DFF80D
:10425000F00184420AD101215FF40010FFF7A2F8B7
:1042600000215FF40010FFF79DF854E0DFF8D4015F
:10427000844208D101214020FFF7A4F8002140200A
:10428000FFF7A0F847E0DFF8C001844208D1012120
:104290008020FFF797F800218020FFF793F83AE09D
:1042A000DFF8A80184420AD101214FF48070FFF7A2
:1042B00089F800214FF48070FFF784F82BE0DFF8D5
:1042C000900184420AD101215FF48030FFF76AF83F
:1042D00000215FF48030FFF765F81CE0DFF874011F
:1042E00084420AD101215FF40030FFF75BF800211E
:1042F0005FF40030FFF756F80DE0DFF85C01844210
:1043000009D101215FF48020FFF74CF800215FF410
:104310008020FFF747F810BD10B400220388214C1D
:10432000A0420FD0DFF80C2190420BD0B0F1804FAB
:1043300008D01D4A904205D01C4A904202D01C4A27
:10434000904204D14FF68F7213404A881343DFF82E
:10435000DC20904208D0DFF8D820904204D04FF6FD
:10436000FF421340CA88134303808A8882850A88E3
:1043700002850C4A90420FD0DFF8B82090420BD053
:10438000DFF8CC20904207D0DFF8C820904203D05D
:10439000DFF8C420904201D10A7A0286012282828B
:1043A00010BC7047002C0140000400400008004091
:1043B000000C00400A00D2B2002A04D0028852F059
:1043C0000102028004E003884FF6FE72134003806E
:1043D00070471300DBB2002B03D083890B4383812A
:1043E00002E083898B43838170470A0092B2D243F3
:1043F00002827047F0B40200002300260024178ACE
:104400000F4095890D40380080B2002805D0280063
:1044100080B2002801D0012000E00020C0B2F0BC32
:1044200070470A0092B2D2430282704700100040E7
:104430000014004000340140004C01400050014095
:104440000054014000180040001C004000200040C3
:1044500000400140004401400048014080B54E4802
:10446000006850F001004C4908604C4801684C4815
:1044700001404A480160484801684A4801404648AE
:1044800001604548006830F4802043490860434893
:10449000006830F4FE00414908605FF41F004249A3
:1044A000086000F005F85FF000604049086001BD59
:1044B00080B500F001F801BD82B00020019000201D
:1044C00000903548006850F4803033490860324825
:1044D000006810F4003000900198401C0190009892
:1044E000002803D10198B0F5A06FF0D12A480068E8
:1044F000800302D50120009001E000200090009888
:10450000012847D12A48006850F010002849086067
:104510002748006880088000254908602448006812
:1045200050F00200224908601C4800681B490860DE
:104530001A480068194908601848006850F48060FB
:10454000164908601548006830F47C10134908606B
:104550001248006850F4E810104908600E480068DE
:1045600050F080700C4908600B4800688001FBD552
:104570000A48006880088000084908600748006809
:1045800050F00200054908600448006810F00C0073
:104590000828F9D102B07047001002400410024010
:1045A0000000FFF8FFFFF6FE0810024008ED00E0F3
:1045B0000020024080B541480078002803D002283E
:1045C00043D010D34BE001213D48FEF795FF002872
:1045D00002D101203949087000203A4908700020B2
:1045E000394908703BE001213548FEF785FF002876
:1045F0001CD135480078002802D1012032490870CA
:1046000030480078401C2F4908702E4800787928DF
:104610001ADB02202749087000202A490870002070
:10462000294908700220254908700DE026480078C5
:10463000012806D101201F49087002201F49087077
:1046400002E000201D49087009E001211C48FEF726
:1046500053FF012802D1002018490870FFE701BD6F
:1046600080B501211248FFF7C5FE002815D0174874
:104670000078401C1549087014480078062808DBAB
:104680000C4800780C490870FFF794FF00200F4990
:10469000087001210648FFF7C4FE0D480078002885
:1046A00005D00C48FEF7C0FD00200949087001BD87
:1046B00000040040A8040020A9040020AC0400204D
:1046C00000080140AA040020AB040020AD04002033
:1046D00098000020844A000801B40098002803D004
:1046E0000098401E0090F8E701B0704710B5B8B0D0
:1046F000002401A810491422FDF78AFE06AA0F49DA
:1047000027A8FEF712FB27A8FEF76CFB09200090F4
:1047100001AB3122002127A8FEF77BFB4FF40051AB
:104720000748FEF709FF0748FFF7D6FF01A0FEF78D
:104730007BFDF8E70A000000FC4A00080038014051
:1047400000100140FEFFFF007047FEE7FEE7FEE7B6
:10475000FEE77047704770470E480068401C0D49DF
:104760000860704780B5012000F018F8002810D0CC
:104770004FF400510848FEF7CDFED0F101000200D1
:10478000D2B24FF400510448FEF7DAFE012000F0E7
:1047900018F801BD900400200010014010B4020080
:1047A00000230020084909681140084C246814427D
:1047B00003D0002901D0012000E00020C0B210BCCD
:1047C000704702490860704700040140140401402A
:1047D00019E050F8042BD30744BFA9F101039A183C
:1047E000091F0023042942F8043BF9D25FEA817CC7
:1047F000134604D54FF0000CA2F800C09B1CC9075B
:1048000044BF0021197050F8041B0029E1D1704702
:1048100030B5016884684218416802EB5103C9074A
:104820000BD54C4409E012F9011B12F8015B002979
:1048300004F8015B05D5491CF9D19A42F3D10C303B
:1048400030BD491EF1D5F8E770617273696E67205B
:104850006661696C7572652C207468726F7720646C
:10486000617461207468656E207265747279207459
:104870006F207061727365200D0A000061737369A7
:104880007374616E63652E6875705F7375636365BD
:1048900073735F68616E646C655F66756E632069D3
:1048A00073204E554C4C0D0A00000000706172736D
:1048B0006520726573706F6E7365206672616D65D9
:1048C000207375636365737366756C6C7920212141
:1048D000210D0A0D0A000000706172736520726577
:1048E0007175657374206672616D6520737563639D
:1048F00065737366756C6C79202121210D0A0D0A90
:104900000000000075736172742073656E6420612D
:104910006464725F6C656E206F72206164647220E3
:10492000696C6C6567616C2121210A0010B507492B
:1049300079441831064C7C44163404E00A68081D9A
:10494000114488470146A142F8D110BD080000007B
:10495000240000007DFEFFFF140400009C000020E6
:1049600000000000ADFEFFFFF4020000DE000000CA
:104970000000002070617273696E67206461746169
:104980002072656379636C6520636865636B200DD5
:104990000A0000006875702068616E646C652069AB
:1049A00073207375636365737366756C2121210DC4
:1049B0000A00000075736172742073656E6420755F
:1049C00073617274206973204E554C4C2121210A69
:1049D0000000000000F00DF8002801D0FFF7A6FF4E
:1049E000AFF300800020AFF30080FFF77FFE00F000
:1049F00002F80120704700F001B800000746384671
:104A0000FCF77CFBFBE70000687570207061636B4E
:104A100020736F72742069732077726F6E67212123
:104A2000210D0A00687570207061727365206973CA
:104A3000204E554C4C2121210D0A000070617273EB
:104A4000696E672068656164206869676E200D0A79
:104A50000000000070617273696E672064617461A8
:104A6000206C656E677468200D0A000070617273B7
:104A7000696E6720646174612070617274200D0A30
:104A8000000000006B657920657874692072756E8E
:104A90006E696E672E2E2E0A0000000038B504469F
:104AA0000D46284600F006F8A84218BF002420460C
:104AB00032BD00000149FEF77BBB00BF180000209B
:104AC00070617273696E672068656164206C6F77CE
:104AD000200D0A006875705F70617273653A256415
:104AE0002C2025730D0A00004352432077726F6E0D
:104AF000672121210D0A0D0A0000000031323334F4
:104B00003536373839000000000000000000000092
:104B100074696D657220696E69742066616C69756F
:104B200072650A00646D612073656E642073746140
:104B30007274200A0000000070617273696E672051
:104B4000636D64200D0A0000646174615F6C656EC2
:104B50003A2025640D0A00000148804701480047BB
:104B60005D440008694B0008AFF30080AFF300809C
:104B7000FFF730FF30782D257820000000002E0050
:104B8000FFF7FEBFFFF7FEBFFFF7FEBFFFF7FEBF59
:104B9000FFF7FEBFFFF7FEBFFFF7FEBFFFF7FEBF49
:104BA000FFF7FEBFFFF7FEBFFFF7FEBFFFF7FEBF39
:104BB000FFF7FEBFFFF7FEBFFFF7FEBFFFF7FEBF29
:104BC000FFF7FEBFFFF7FEBFFFF7FEBFFFF7FEBF19
:104BD000FFF7FEBFFFF7FEBFFFF7FEBFFFF7FEBF09
:104BE000FFF7FEBFFFF7FEBFFFF7FEBFFFF7FEBFF9
:104BF000FFF7FEBFFFF7FEBFFFF7FEBFFFF7FEBFE9
:104C0000FFF7FEBFFFF7FEBFFFF7FEBFFFF7FEBFD8
:104C1000FFF7FEBFFFF7FEBFFFF7FEBFFFF7FEBFC8
:104C2000FFF7FEBFFFF7FEBFFFF7FEBFFFF7FEBFB8
:104C3000FFF7FEBFFFF7FEBFFFF7FEBFFFF7FEBFA8
:104C4000FFF7FEBFFFF7FEBFFFF7FEBFFFF7FEBF98
:104C5000FFF7FEBFFFF7FEBFFFF7FEBF0032F90010
:104C600023010203040102030406070809020406E3
:104C7000080204010104040020540400200404007C
:104C80002004040020FC000304040020FC00075C56
:104C900000002048000020E0001B7C4B00087C4BFB
:104CA00000087C4B00087C4B00087C4B00087C4BC8
:104CB00000087C4B0008F8FF0B7E4B00087C4B0083
:0B4CC000087C4B0008FAFF0200000116
:0400000508004B693B
:00000001FF
